{"abi":[{"type":"constructor","inputs":[{"name":"_lzEndpoint","type":"address","internalType":"address"}],"stateMutability":"nonpayable"},{"type":"function","name":"SEND","inputs":[],"outputs":[{"name":"","type":"uint16","internalType":"uint16"}],"stateMutability":"view"},{"type":"function","name":"SEND_AND_CALL","inputs":[],"outputs":[{"name":"","type":"uint16","internalType":"uint16"}],"stateMutability":"view"},{"type":"function","name":"allowInitializePath","inputs":[{"name":"origin","type":"tuple","internalType":"struct Origin","components":[{"name":"srcEid","type":"uint32","internalType":"uint32"},{"name":"sender","type":"bytes32","internalType":"bytes32"},{"name":"nonce","type":"uint64","internalType":"uint64"}]}],"outputs":[{"name":"","type":"bool","internalType":"bool"}],"stateMutability":"view"},{"type":"function","name":"allowance","inputs":[{"name":"owner","type":"address","internalType":"address"},{"name":"spender","type":"address","internalType":"address"}],"outputs":[{"name":"","type":"uint256","internalType":"uint256"}],"stateMutability":"view"},{"type":"function","name":"approvalRequired","inputs":[],"outputs":[{"name":"","type":"bool","internalType":"bool"}],"stateMutability":"pure"},{"type":"function","name":"approve","inputs":[{"name":"spender","type":"address","internalType":"address"},{"name":"amount","type":"uint256","internalType":"uint256"}],"outputs":[{"name":"","type":"bool","internalType":"bool"}],"stateMutability":"nonpayable"},{"type":"function","name":"balanceOf","inputs":[{"name":"account","type":"address","internalType":"address"}],"outputs":[{"name":"","type":"uint256","internalType":"uint256"}],"stateMutability":"view"},{"type":"function","name":"buildMsgAndOptions","inputs":[{"name":"_sendParam","type":"tuple","internalType":"struct SendParam","components":[{"name":"dstEid","type":"uint32","internalType":"uint32"},{"name":"to","type":"bytes32","internalType":"bytes32"},{"name":"amountLD","type":"uint256","internalType":"uint256"},{"name":"minAmountLD","type":"uint256","internalType":"uint256"},{"name":"extraOptions","type":"bytes","internalType":"bytes"},{"name":"composeMsg","type":"bytes","internalType":"bytes"},{"name":"oftCmd","type":"bytes","internalType":"bytes"}]},{"name":"_amountLD","type":"uint256","internalType":"uint256"}],"outputs":[{"name":"message","type":"bytes","internalType":"bytes"},{"name":"options","type":"bytes","internalType":"bytes"}],"stateMutability":"view"},{"type":"function","name":"combineOptions","inputs":[{"name":"_eid","type":"uint32","internalType":"uint32"},{"name":"_msgType","type":"uint16","internalType":"uint16"},{"name":"_extraOptions","type":"bytes","internalType":"bytes"}],"outputs":[{"name":"","type":"bytes","internalType":"bytes"}],"stateMutability":"view"},{"type":"function","name":"composeMsgSender","inputs":[],"outputs":[{"name":"sender","type":"address","internalType":"address"}],"stateMutability":"view"},{"type":"function","name":"debitView","inputs":[{"name":"_amountLD","type":"uint256","internalType":"uint256"},{"name":"_minAmountLD","type":"uint256","internalType":"uint256"},{"name":"_dstEid","type":"uint32","internalType":"uint32"}],"outputs":[{"name":"amountSentLD","type":"uint256","internalType":"uint256"},{"name":"amountReceivedLD","type":"uint256","internalType":"uint256"}],"stateMutability":"view"},{"type":"function","name":"decimalConversionRate","inputs":[],"outputs":[{"name":"","type":"uint256","internalType":"uint256"}],"stateMutability":"view"},{"type":"function","name":"decimals","inputs":[],"outputs":[{"name":"","type":"uint8","internalType":"uint8"}],"stateMutability":"view"},{"type":"function","name":"decreaseAllowance","inputs":[{"name":"spender","type":"address","internalType":"address"},{"name":"subtractedValue","type":"uint256","internalType":"uint256"}],"outputs":[{"name":"","type":"bool","internalType":"bool"}],"stateMutability":"nonpayable"},{"type":"function","name":"endpoint","inputs":[],"outputs":[{"name":"","type":"address","internalType":"contract ILayerZeroEndpointV2"}],"stateMutability":"view"},{"type":"function","name":"enforcedOptions","inputs":[{"name":"_eid","type":"uint32","internalType":"uint32"},{"name":"_msgType","type":"uint16","internalType":"uint16"}],"outputs":[{"name":"","type":"bytes","internalType":"bytes"}],"stateMutability":"view"},{"type":"function","name":"increaseAllowance","inputs":[{"name":"spender","type":"address","internalType":"address"},{"name":"addedValue","type":"uint256","internalType":"uint256"}],"outputs":[{"name":"","type":"bool","internalType":"bool"}],"stateMutability":"nonpayable"},{"type":"function","name":"initialize","inputs":[{"name":"_name","type":"string","internalType":"string"},{"name":"_symbol","type":"string","internalType":"string"},{"name":"_delegate","type":"address","internalType":"address"}],"outputs":[],"stateMutability":"nonpayable"},{"type":"function","name":"isPeer","inputs":[{"name":"_eid","type":"uint32","internalType":"uint32"},{"name":"_peer","type":"bytes32","internalType":"bytes32"}],"outputs":[{"name":"","type":"bool","internalType":"bool"}],"stateMutability":"view"},{"type":"function","name":"lzReceive","inputs":[{"name":"_origin","type":"tuple","internalType":"struct Origin","components":[{"name":"srcEid","type":"uint32","internalType":"uint32"},{"name":"sender","type":"bytes32","internalType":"bytes32"},{"name":"nonce","type":"uint64","internalType":"uint64"}]},{"name":"_guid","type":"bytes32","internalType":"bytes32"},{"name":"_message","type":"bytes","internalType":"bytes"},{"name":"_executor","type":"address","internalType":"address"},{"name":"_extraData","type":"bytes","internalType":"bytes"}],"outputs":[],"stateMutability":"payable"},{"type":"function","name":"lzReceiveAndRevert","inputs":[{"name":"_packets","type":"tuple[]","internalType":"struct InboundPacket[]","components":[{"name":"origin","type":"tuple","internalType":"struct Origin","components":[{"name":"srcEid","type":"uint32","internalType":"uint32"},{"name":"sender","type":"bytes32","internalType":"bytes32"},{"name":"nonce","type":"uint64","internalType":"uint64"}]},{"name":"dstEid","type":"uint32","internalType":"uint32"},{"name":"receiver","type":"address","internalType":"address"},{"name":"guid","type":"bytes32","internalType":"bytes32"},{"name":"value","type":"uint256","internalType":"uint256"},{"name":"executor","type":"address","internalType":"address"},{"name":"message","type":"bytes","internalType":"bytes"},{"name":"extraData","type":"bytes","internalType":"bytes"}]}],"outputs":[],"stateMutability":"payable"},{"type":"function","name":"lzReceiveSimulate","inputs":[{"name":"_origin","type":"tuple","internalType":"struct Origin","components":[{"name":"srcEid","type":"uint32","internalType":"uint32"},{"name":"sender","type":"bytes32","internalType":"bytes32"},{"name":"nonce","type":"uint64","internalType":"uint64"}]},{"name":"_guid","type":"bytes32","internalType":"bytes32"},{"name":"_message","type":"bytes","internalType":"bytes"},{"name":"_executor","type":"address","internalType":"address"},{"name":"_extraData","type":"bytes","internalType":"bytes"}],"outputs":[],"stateMutability":"payable"},{"type":"function","name":"msgInspector","inputs":[],"outputs":[{"name":"","type":"address","internalType":"address"}],"stateMutability":"view"},{"type":"function","name":"name","inputs":[],"outputs":[{"name":"","type":"string","internalType":"string"}],"stateMutability":"view"},{"type":"function","name":"nextNonce","inputs":[{"name":"","type":"uint32","internalType":"uint32"},{"name":"","type":"bytes32","internalType":"bytes32"}],"outputs":[{"name":"nonce","type":"uint64","internalType":"uint64"}],"stateMutability":"view"},{"type":"function","name":"oApp","inputs":[],"outputs":[{"name":"","type":"address","internalType":"address"}],"stateMutability":"view"},{"type":"function","name":"oAppVersion","inputs":[],"outputs":[{"name":"senderVersion","type":"uint64","internalType":"uint64"},{"name":"receiverVersion","type":"uint64","internalType":"uint64"}],"stateMutability":"pure"},{"type":"function","name":"oftVersion","inputs":[],"outputs":[{"name":"interfaceId","type":"bytes4","internalType":"bytes4"},{"name":"version","type":"uint64","internalType":"uint64"}],"stateMutability":"pure"},{"type":"function","name":"owner","inputs":[],"outputs":[{"name":"","type":"address","internalType":"address"}],"stateMutability":"view"},{"type":"function","name":"peers","inputs":[{"name":"_eid","type":"uint32","internalType":"uint32"}],"outputs":[{"name":"","type":"bytes32","internalType":"bytes32"}],"stateMutability":"view"},{"type":"function","name":"preCrime","inputs":[],"outputs":[{"name":"","type":"address","internalType":"address"}],"stateMutability":"view"},{"type":"function","name":"quoteOFT","inputs":[{"name":"_sendParam","type":"tuple","internalType":"struct SendParam","components":[{"name":"dstEid","type":"uint32","internalType":"uint32"},{"name":"to","type":"bytes32","internalType":"bytes32"},{"name":"amountLD","type":"uint256","internalType":"uint256"},{"name":"minAmountLD","type":"uint256","internalType":"uint256"},{"name":"extraOptions","type":"bytes","internalType":"bytes"},{"name":"composeMsg","type":"bytes","internalType":"bytes"},{"name":"oftCmd","type":"bytes","internalType":"bytes"}]}],"outputs":[{"name":"oftLimit","type":"tuple","internalType":"struct OFTLimit","components":[{"name":"minAmountLD","type":"uint256","internalType":"uint256"},{"name":"maxAmountLD","type":"uint256","internalType":"uint256"}]},{"name":"oftFeeDetails","type":"tuple[]","internalType":"struct OFTFeeDetail[]","components":[{"name":"feeAmountLD","type":"int256","internalType":"int256"},{"name":"description","type":"string","internalType":"string"}]},{"name":"oftReceipt","type":"tuple","internalType":"struct OFTReceipt","components":[{"name":"amountSentLD","type":"uint256","internalType":"uint256"},{"name":"amountReceivedLD","type":"uint256","internalType":"uint256"}]}],"stateMutability":"view"},{"type":"function","name":"quoteSend","inputs":[{"name":"_sendParam","type":"tuple","internalType":"struct SendParam","components":[{"name":"dstEid","type":"uint32","internalType":"uint32"},{"name":"to","type":"bytes32","internalType":"bytes32"},{"name":"amountLD","type":"uint256","internalType":"uint256"},{"name":"minAmountLD","type":"uint256","internalType":"uint256"},{"name":"extraOptions","type":"bytes","internalType":"bytes"},{"name":"composeMsg","type":"bytes","internalType":"bytes"},{"name":"oftCmd","type":"bytes","internalType":"bytes"}]},{"name":"_payInLzToken","type":"bool","internalType":"bool"}],"outputs":[{"name":"msgFee","type":"tuple","internalType":"struct MessagingFee","components":[{"name":"nativeFee","type":"uint256","internalType":"uint256"},{"name":"lzTokenFee","type":"uint256","internalType":"uint256"}]}],"stateMutability":"view"},{"type":"function","name":"removeDust","inputs":[{"name":"_amountLD","type":"uint256","internalType":"uint256"}],"outputs":[{"name":"amountLD","type":"uint256","internalType":"uint256"}],"stateMutability":"view"},{"type":"function","name":"renounceOwnership","inputs":[],"outputs":[],"stateMutability":"nonpayable"},{"type":"function","name":"send","inputs":[{"name":"_sendParam","type":"tuple","internalType":"struct SendParam","components":[{"name":"dstEid","type":"uint32","internalType":"uint32"},{"name":"to","type":"bytes32","internalType":"bytes32"},{"name":"amountLD","type":"uint256","internalType":"uint256"},{"name":"minAmountLD","type":"uint256","internalType":"uint256"},{"name":"extraOptions","type":"bytes","internalType":"bytes"},{"name":"composeMsg","type":"bytes","internalType":"bytes"},{"name":"oftCmd","type":"bytes","internalType":"bytes"}]},{"name":"_fee","type":"tuple","internalType":"struct MessagingFee","components":[{"name":"nativeFee","type":"uint256","internalType":"uint256"},{"name":"lzTokenFee","type":"uint256","internalType":"uint256"}]},{"name":"_refundAddress","type":"address","internalType":"address"}],"outputs":[{"name":"msgReceipt","type":"tuple","internalType":"struct MessagingReceipt","components":[{"name":"guid","type":"bytes32","internalType":"bytes32"},{"name":"nonce","type":"uint64","internalType":"uint64"},{"name":"fee","type":"tuple","internalType":"struct MessagingFee","components":[{"name":"nativeFee","type":"uint256","internalType":"uint256"},{"name":"lzTokenFee","type":"uint256","internalType":"uint256"}]}]},{"name":"oftReceipt","type":"tuple","internalType":"struct OFTReceipt","components":[{"name":"amountSentLD","type":"uint256","internalType":"uint256"},{"name":"amountReceivedLD","type":"uint256","internalType":"uint256"}]}],"stateMutability":"payable"},{"type":"function","name":"setDelegate","inputs":[{"name":"_delegate","type":"address","internalType":"address"}],"outputs":[],"stateMutability":"nonpayable"},{"type":"function","name":"setEnforcedOptions","inputs":[{"name":"_enforcedOptions","type":"tuple[]","internalType":"struct EnforcedOptionParam[]","components":[{"name":"eid","type":"uint32","internalType":"uint32"},{"name":"msgType","type":"uint16","internalType":"uint16"},{"name":"options","type":"bytes","internalType":"bytes"}]}],"outputs":[],"stateMutability":"nonpayable"},{"type":"function","name":"setMsgInspector","inputs":[{"name":"_msgInspector","type":"address","internalType":"address"}],"outputs":[],"stateMutability":"nonpayable"},{"type":"function","name":"setPeer","inputs":[{"name":"_eid","type":"uint32","internalType":"uint32"},{"name":"_peer","type":"bytes32","internalType":"bytes32"}],"outputs":[],"stateMutability":"nonpayable"},{"type":"function","name":"setPreCrime","inputs":[{"name":"_preCrime","type":"address","internalType":"address"}],"outputs":[],"stateMutability":"nonpayable"},{"type":"function","name":"sharedDecimals","inputs":[],"outputs":[{"name":"","type":"uint8","internalType":"uint8"}],"stateMutability":"pure"},{"type":"function","name":"symbol","inputs":[],"outputs":[{"name":"","type":"string","internalType":"string"}],"stateMutability":"view"},{"type":"function","name":"toLD","inputs":[{"name":"_amountSD","type":"uint64","internalType":"uint64"}],"outputs":[{"name":"amountLD","type":"uint256","internalType":"uint256"}],"stateMutability":"view"},{"type":"function","name":"toSD","inputs":[{"name":"_amountLD","type":"uint256","internalType":"uint256"}],"outputs":[{"name":"amountSD","type":"uint64","internalType":"uint64"}],"stateMutability":"view"},{"type":"function","name":"token","inputs":[],"outputs":[{"name":"","type":"address","internalType":"address"}],"stateMutability":"view"},{"type":"function","name":"totalSupply","inputs":[],"outputs":[{"name":"","type":"uint256","internalType":"uint256"}],"stateMutability":"view"},{"type":"function","name":"transfer","inputs":[{"name":"to","type":"address","internalType":"address"},{"name":"amount","type":"uint256","internalType":"uint256"}],"outputs":[{"name":"","type":"bool","internalType":"bool"}],"stateMutability":"nonpayable"},{"type":"function","name":"transferFrom","inputs":[{"name":"from","type":"address","internalType":"address"},{"name":"to","type":"address","internalType":"address"},{"name":"amount","type":"uint256","internalType":"uint256"}],"outputs":[{"name":"","type":"bool","internalType":"bool"}],"stateMutability":"nonpayable"},{"type":"function","name":"transferOwnership","inputs":[{"name":"newOwner","type":"address","internalType":"address"}],"outputs":[],"stateMutability":"nonpayable"},{"type":"function","name":"version","inputs":[],"outputs":[{"name":"major","type":"uint256","internalType":"uint256"},{"name":"minor","type":"uint256","internalType":"uint256"},{"name":"patch","type":"uint256","internalType":"uint256"}],"stateMutability":"pure"},{"type":"event","name":"Approval","inputs":[{"name":"owner","type":"address","indexed":true,"internalType":"address"},{"name":"spender","type":"address","indexed":true,"internalType":"address"},{"name":"value","type":"uint256","indexed":false,"internalType":"uint256"}],"anonymous":false},{"type":"event","name":"EnforcedOptionSet","inputs":[{"name":"_enforcedOptions","type":"tuple[]","indexed":false,"internalType":"struct EnforcedOptionParam[]","components":[{"name":"eid","type":"uint32","internalType":"uint32"},{"name":"msgType","type":"uint16","internalType":"uint16"},{"name":"options","type":"bytes","internalType":"bytes"}]}],"anonymous":false},{"type":"event","name":"Initialized","inputs":[{"name":"version","type":"uint8","indexed":false,"internalType":"uint8"}],"anonymous":false},{"type":"event","name":"MsgInspectorSet","inputs":[{"name":"inspector","type":"address","indexed":false,"internalType":"address"}],"anonymous":false},{"type":"event","name":"OFTReceived","inputs":[{"name":"guid","type":"bytes32","indexed":true,"internalType":"bytes32"},{"name":"srcEid","type":"uint32","indexed":false,"internalType":"uint32"},{"name":"toAddress","type":"address","indexed":true,"internalType":"address"},{"name":"amountReceivedLD","type":"uint256","indexed":false,"internalType":"uint256"}],"anonymous":false},{"type":"event","name":"OFTSent","inputs":[{"name":"guid","type":"bytes32","indexed":true,"internalType":"bytes32"},{"name":"dstEid","type":"uint32","indexed":false,"internalType":"uint32"},{"name":"fromAddress","type":"address","indexed":true,"internalType":"address"},{"name":"amountSentLD","type":"uint256","indexed":false,"internalType":"uint256"},{"name":"amountReceivedLD","type":"uint256","indexed":false,"internalType":"uint256"}],"anonymous":false},{"type":"event","name":"OwnershipTransferred","inputs":[{"name":"previousOwner","type":"address","indexed":true,"internalType":"address"},{"name":"newOwner","type":"address","indexed":true,"internalType":"address"}],"anonymous":false},{"type":"event","name":"PeerSet","inputs":[{"name":"eid","type":"uint32","indexed":false,"internalType":"uint32"},{"name":"peer","type":"bytes32","indexed":false,"internalType":"bytes32"}],"anonymous":false},{"type":"event","name":"PreCrimeSet","inputs":[{"name":"preCrimeAddress","type":"address","indexed":false,"internalType":"address"}],"anonymous":false},{"type":"event","name":"Transfer","inputs":[{"name":"from","type":"address","indexed":true,"internalType":"address"},{"name":"to","type":"address","indexed":true,"internalType":"address"},{"name":"value","type":"uint256","indexed":false,"internalType":"uint256"}],"anonymous":false},{"type":"error","name":"InvalidDelegate","inputs":[]},{"type":"error","name":"InvalidEndpointCall","inputs":[]},{"type":"error","name":"InvalidLocalDecimals","inputs":[]},{"type":"error","name":"InvalidOptions","inputs":[{"name":"options","type":"bytes","internalType":"bytes"}]},{"type":"error","name":"LzTokenUnavailable","inputs":[]},{"type":"error","name":"NoPeer","inputs":[{"name":"eid","type":"uint32","internalType":"uint32"}]},{"type":"error","name":"NotEnoughNative","inputs":[{"name":"msgValue","type":"uint256","internalType":"uint256"}]},{"type":"error","name":"OnlyEndpoint","inputs":[{"name":"addr","type":"address","internalType":"address"}]},{"type":"error","name":"OnlyPeer","inputs":[{"name":"eid","type":"uint32","internalType":"uint32"},{"name":"sender","type":"bytes32","internalType":"bytes32"}]},{"type":"error","name":"OnlySelf","inputs":[]},{"type":"error","name":"SimulationResult","inputs":[{"name":"result","type":"bytes","internalType":"bytes"}]},{"type":"error","name":"SlippageExceeded","inputs":[{"name":"amountLD","type":"uint256","internalType":"uint256"},{"name":"minAmountLD","type":"uint256","internalType":"uint256"}]}],"bytecode":{"object":"0x60c06040523480156200001157600080fd5b5060405162003e8b38038062003e8b83398101604081905262000034916200006d565b6001600160a01b0381166080528060128162000052600683620000b5565b6200005f90600a620001d4565b60a05250620001e592505050565b6000602082840312156200008057600080fd5b81516001600160a01b03811681146200009857600080fd5b9392505050565b634e487b7160e01b600052601160045260246000fd5b60ff8281168282160390811115620000d157620000d16200009f565b92915050565b600181815b8085111562000118578160001904821115620000fc57620000fc6200009f565b808516156200010a57918102915b93841c9390800290620000dc565b509250929050565b6000826200013157506001620000d1565b816200014057506000620000d1565b8160018114620001595760028114620001645762000184565b6001915050620000d1565b60ff8411156200017857620001786200009f565b50506001821b620000d1565b5060208310610133831016604e8410600b8410161715620001a9575081810a620000d1565b620001b58383620000d7565b8060001904821115620001cc57620001cc6200009f565b029392505050565b60006200009860ff84168362000120565b60805160a051613c3a620002516000396000818161074d01528181611bfe0152818161213601526121aa01526000818161064401528181610cb9015281816116b201528181611d03015281816120640152818161222d0152818161264001526126f90152613c3a6000f3fe6080604052600436106102e45760003560e01c8063715018a611610190578063bb0b6a53116100dc578063d045a0dc11610095578063f01630231161006f578063f01630231461093f578063f2fde38b14610974578063fc0c546a1461058e578063ff7bd03d1461099457600080fd5b8063d045a0dc146108ec578063d4243885146108ff578063dd62ed3e1461091f57600080fd5b8063bb0b6a5314610818578063bc70b35414610858578063bd815db014610878578063c07799881461088b578063c7c7f5b3146108ab578063ca5eb5e1146108cc57600080fd5b80639f68b96411610149578063b3a5abeb11610123578063b3a5abeb146107c3578063b731ea0a146107e3578063b92d0eff1461058e578063b98bd070146107f857600080fd5b80639f68b9641461076f578063a457c2d714610783578063a9059cbb146107a357600080fd5b8063715018a6146106bc5780637d25a05e146106d1578063857749b0146106f45780638da5cb5b1461070857806395d89b4114610726578063963efcaa1461073b57600080fd5b80631f5e13341161024f57806352ae2879116102085780635a0dfe4d116101e25780635a0dfe4d146105ee5780635e280f11146106325780636fc1b31e1461066657806370a082311461068657600080fd5b806352ae28791461058e57806354fd4d50146105a15780635535d461146105ce57600080fd5b80631f5e1334146104ca57806323b872dd146104df578063313ce567146104ff5780633400288b1461052157806339509351146105415780633b6f743b1461056157600080fd5b8063111ecdad116102a1578063111ecdad146103fb57806313137d6514610428578063134d4f251461043b578063156a0d0f1461046357806317442b701461048a57806318160ddd146104ab57600080fd5b8063056d62de146102e957806306fdde0314610320578063077f224a14610342578063095ea7b3146103645780630d35b415146103945780630e78842c146103c3575b600080fd5b3480156102f557600080fd5b50610309610304366004612b3e565b6109b4565b604051610317929190612bd2565b60405180910390f35b34801561032c57600080fd5b506103356109cd565b6040516103179190612bf7565b34801561034e57600080fd5b5061036261035d366004612d0a565b610a5f565b005b34801561037057600080fd5b5061038461037f366004612d81565b610b8c565b6040519015158152602001610317565b3480156103a057600080fd5b506103b46103af366004612dad565b610ba6565b60405161031793929190612de1565b3480156103cf57600080fd5b506103e36103de366004612e7a565b610c77565b6040516001600160401b039091168152602001610317565b34801561040757600080fd5b50610410610c82565b6040516001600160a01b039091168152602001610317565b610362610436366004612ee6565b610cb7565b34801561044757600080fd5b50610450600281565b60405161ffff9091168152602001610317565b34801561046f57600080fd5b506040805162b9270b60e21b81526001602082015201610317565b34801561049657600080fd5b50604080516001808252602082015201610317565b3480156104b757600080fd5b506067545b604051908152602001610317565b3480156104d657600080fd5b50610450600181565b3480156104eb57600080fd5b506103846104fa366004612f85565b610d72565b34801561050b57600080fd5b5060125b60405160ff9091168152602001610317565b34801561052d57600080fd5b5061036261053c366004612fdf565b610d98565b34801561054d57600080fd5b5061038461055c366004612d81565b610e05565b34801561056d57600080fd5b5061058161057c366004613009565b610e27565b604051610317919061305a565b34801561059a57600080fd5b5030610410565b3480156105ad57600080fd5b50600160008060408051938452602084019290925290820152606001610317565b3480156105da57600080fd5b506103356105e9366004613083565b610e8e565b3480156105fa57600080fd5b50610384610609366004612fdf565b63ffffffff919091166000908152600080516020613be583398151915260205260409020541490565b34801561063e57600080fd5b506104107f000000000000000000000000000000000000000000000000000000000000000081565b34801561067257600080fd5b506103626106813660046130b6565b610f69565b34801561069257600080fd5b506104bc6106a13660046130b6565b6001600160a01b031660009081526065602052604090205490565b3480156106c857600080fd5b50610362610fe5565b3480156106dd57600080fd5b506103e36106ec366004612fdf565b600092915050565b34801561070057600080fd5b50600661050f565b34801561071457600080fd5b506033546001600160a01b0316610410565b34801561073257600080fd5b50610335610ff9565b34801561074757600080fd5b506104bc7f000000000000000000000000000000000000000000000000000000000000000081565b34801561077b57600080fd5b506000610384565b34801561078f57600080fd5b5061038461079e366004612d81565b611008565b3480156107af57600080fd5b506103846107be366004612d81565b61108e565b3480156107cf57600080fd5b506104bc6107de3660046130e8565b61109c565b3480156107ef57600080fd5b506104106110a7565b34801561080457600080fd5b50610362610813366004613149565b6110d0565b34801561082457600080fd5b506104bc61083336600461318a565b63ffffffff166000908152600080516020613be5833981519152602052604090205490565b34801561086457600080fd5b506103356108733660046131a5565b611251565b610362610886366004613149565b6113ef565b34801561089757600080fd5b506104bc6108a6366004612e7a565b611586565b6108be6108b9366004613205565b611591565b604051610317929190613267565b3480156108d857600080fd5b506103626108e73660046130b6565b61168b565b6103626108fa366004612ee6565b611711565b34801561090b57600080fd5b5061036261091a3660046130b6565b611740565b34801561092b57600080fd5b506104bc61093a3660046132b9565b6117b4565b34801561094b57600080fd5b5061095f61095a3660046132e7565b6117df565b60408051928352602083019190915201610317565b34801561098057600080fd5b5061036261098f3660046130b6565b6117fa565b3480156109a057600080fd5b506103846109af36600461331c565b611873565b6060806109c18484611891565b915091505b9250929050565b6060606880546109dc90613338565b80601f0160208091040260200160405190810160405280929190818152602001828054610a0890613338565b8015610a555780601f10610a2a57610100808354040283529160200191610a55565b820191906000526020600020905b815481529060010190602001808311610a3857829003601f168201915b5050505050905090565b600054610100900460ff1615808015610a7f5750600054600160ff909116105b80610a995750303b158015610a99575060005460ff166001145b610b015760405162461bcd60e51b815260206004820152602e60248201527f496e697469616c697a61626c653a20636f6e747261637420697320616c72656160448201526d191e481a5b9a5d1a585b1a5e995960921b60648201526084015b60405180910390fd5b6000805460ff191660011790558015610b24576000805461ff0019166101001790555b610b2f8484846119d7565b610b37611a16565b610b4082611a45565b8015610b86576000805461ff0019169055604051600181527f7f26b83ff96e1f2b6a682f133852f6798a09c465da95921460cefb38474024989060200160405180910390a15b50505050565b600033610b9a818585611a97565b60019150505b92915050565b60408051808201909152600080825260208201526060610bd9604051806040016040528060008152602001600081525090565b60408051808201825260008082526001600160401b03602080840182905284518381529081019094529195509182610c34565b604080518082019091526000815260606020820152815260200190600190039081610c0c5790505b509350600080610c59604089013560608a0135610c5460208c018c61318a565b611bbb565b60408051808201909152918252602082015296989597505050505050565b6000610ba082611bf7565b6000807f41db8a78b0206aba5c54bcbfc2bda0d84082a84eb88e680379a57b9e9f653c005b546001600160a01b031692915050565b7f00000000000000000000000000000000000000000000000000000000000000006001600160a01b03163314610d02576040516391ac5e4f60e01b8152336004820152602401610af8565b60208701803590610d1c90610d17908a61318a565b611c23565b14610d5a57610d2e602088018861318a565b60405163309afaf360e21b815263ffffffff909116600482015260208801356024820152604401610af8565b610d6987878787878787611c6e565b50505050505050565b600033610d80858285611dd5565b610d8b858585611e49565b60019150505b9392505050565b610da0611ff4565b63ffffffff82166000818152600080516020613be5833981519152602081815260409283902085905582519384528301849052917f238399d427b947898edb290f5ff0f9109849b1c3ba196a42e35f00c50a54b98b91015b60405180910390a1505050565b600033610b9a818585610e1883836117b4565b610e229190613382565b611a97565b60408051808201909152600080825260208201526000610e5760408501356060860135610c54602088018861318a565b915050600080610e678684611891565b9092509050610e84610e7c602088018861318a565b83838861204e565b9695505050505050565b63ffffffff821660009081527f8d2bda5d9f6ffb5796910376005392955773acee5548d0fcdb10e7c264ea00006020818152604080842061ffff8616855290915290912080546060929190610ee290613338565b80601f0160208091040260200160405190810160405280929190818152602001828054610f0e90613338565b8015610f5b5780601f10610f3057610100808354040283529160200191610f5b565b820191906000526020600020905b815481529060010190602001808311610f3e57829003601f168201915b505050505091505092915050565b610f71611ff4565b7f41db8a78b0206aba5c54bcbfc2bda0d84082a84eb88e680379a57b9e9f653c0080546001600160a01b0319166001600160a01b03831690811782556040519081527ff0be4f1e87349231d80c36b33f9e8639658eeaf474014dee15a3e6a4d4414197906020015b60405180910390a15050565b610fed611ff4565b610ff76000611a45565b565b6060606980546109dc90613338565b6000338161101682866117b4565b9050838110156110765760405162461bcd60e51b815260206004820152602560248201527f45524332303a2064656372656173656420616c6c6f77616e63652062656c6f77604482015264207a65726f60d81b6064820152608401610af8565b6110838286868403611a97565b506001949350505050565b600033610b9a818585611e49565b6000610ba08261212f565b6000807fefb041d771d6daaa55702fff6eb740d63ba559a75d2d1d3e151c78ff2480b600610ca7565b6110d8611ff4565b7f8d2bda5d9f6ffb5796910376005392955773acee5548d0fcdb10e7c264ea000060005b8281101561121f5761113e84848381811061111957611119613395565b905060200281019061112b91906133ab565b6111399060408101906133cb565b612164565b83838281811061115057611150613395565b905060200281019061116291906133ab565b6111709060408101906133cb565b83600087878681811061118557611185613395565b905060200281019061119791906133ab565b6111a590602081019061318a565b63ffffffff1663ffffffff16815260200190815260200160002060008787868181106111d3576111d3613395565b90506020028101906111e591906133ab565b6111f6906040810190602001613411565b61ffff16815260208101919091526040016000209161121691908361347c565b506001016110fc565b507fbe4864a8e820971c0247f5992e2da559595f7bf076a21cb5928d443d2a13b6748383604051610df8929190613564565b63ffffffff841660009081527f8d2bda5d9f6ffb5796910376005392955773acee5548d0fcdb10e7c264ea00006020818152604080842061ffff881685529091528220805460609391906112a490613338565b80601f01602080910402602001604051908101604052809291908181526020018280546112d090613338565b801561131d5780601f106112f25761010080835404028352916020019161131d565b820191906000526020600020905b81548152906001019060200180831161130057829003601f168201915b50505050509050805160000361136e5784848080601f0160208091040260200160405190810160405280939291908181526020018383808284376000920191909152509295506113e7945050505050565b60008490036113805791506113e79050565b600284106113ca576113928585612164565b806113a08560028189613648565b6040516020016113b293929190613672565b604051602081830303815290604052925050506113e7565b8484604051639a6d49cd60e01b8152600401610af892919061369a565b949350505050565b60005b81811015611505573683838381811061140d5761140d613395565b905060200281019061141f91906136ae565b905061145f611431602083018361318a565b602083013563ffffffff919091166000908152600080516020613be583398151915260205260409020541490565b61146957506114fd565b3063d045a0dc60c08301358360a08101356114886101008301836133cb565b611499610100890160e08a016130b6565b6114a76101208a018a6133cb565b6040518963ffffffff1660e01b81526004016114c997969594939291906136c5565b6000604051808303818588803b1580156114e257600080fd5b505af11580156114f6573d6000803e3d6000fd5b5050505050505b6001016113f2565b50336001600160a01b0316638e9e70996040518163ffffffff1660e01b8152600401600060405180830381865afa158015611544573d6000803e3d6000fd5b505050506040513d6000823e601f3d908101601f1916820160405261156c919081019061374b565b604051638351eea760e01b8152600401610af89190612bf7565b6000610ba0826121a6565b611599612adf565b60408051808201909152600080825260208201526000806115cf604088013560608901356115ca60208b018b61318a565b6121dd565b915091506000806115e08984611891565b909250905061160c6115f560208b018b61318a565b8383611606368d90038d018d6137b8565b8b6121fa565b60408051808201909152858152602080820186905282519298509096503391907f85496b760a4b7f8d66384b9df21b381f5d1b1e79f229a47aaf4c232edc2fe59a9061165a908d018d61318a565b6040805163ffffffff909216825260208201899052810187905260600160405180910390a350505050935093915050565b611693611ff4565b60405163ca5eb5e160e01b81526001600160a01b0382811660048301527f0000000000000000000000000000000000000000000000000000000000000000169063ca5eb5e190602401600060405180830381600087803b1580156116f657600080fd5b505af115801561170a573d6000803e3d6000fd5b5050505050565b3330146117315760405163029a949d60e31b815260040160405180910390fd5b610d6987878787878787610d5a565b611748611ff4565b7fefb041d771d6daaa55702fff6eb740d63ba559a75d2d1d3e151c78ff2480b60080546001600160a01b0319166001600160a01b03831690811782556040519081527fd48d879cef83a1c0bdda516f27b13ddb1b3f8bbac1c9e1511bb2a659c242776090602001610fd9565b6001600160a01b03918216600090815260666020908152604080832093909416825291909152205490565b6000806117ed858585611bbb565b915091505b935093915050565b611802611ff4565b6001600160a01b0381166118675760405162461bcd60e51b815260206004820152602660248201527f4f776e61626c653a206e6577206f776e657220697320746865207a65726f206160448201526564647265737360d01b6064820152608401610af8565b61187081611a45565b50565b60006020820180359061188a90610833908561318a565b1492915050565b60608060006118ee85602001356118a786611bf7565b6118b460a08901896133cb565b8080601f01602080910402602001604051908101604052809392919081815260200183838082843760009201919091525061230592505050565b9093509050600081611901576001611904565b60025b9050611924611916602088018861318a565b8261087360808a018a6133cb565b7f41db8a78b0206aba5c54bcbfc2bda0d84082a84eb88e680379a57b9e9f653c008054919450906001600160a01b0316156119cd57805460405163043a78eb60e01b81526001600160a01b039091169063043a78eb9061198a9088908890600401612bd2565b602060405180830381865afa1580156119a7573d6000803e3d6000fd5b505050506040513d601f19601f820116820180604052508101906119cb91906137ea565b505b5050509250929050565b600054610100900460ff166119fe5760405162461bcd60e51b8152600401610af890613807565b611a08838361237f565b611a11816123b4565b505050565b600054610100900460ff16611a3d5760405162461bcd60e51b8152600401610af890613807565b610ff76123e4565b603380546001600160a01b038381166001600160a01b0319831681179093556040519116919082907f8be0079c531659141344cd1fd0a4f28419497f9722a3daafe3b4186f6b6457e090600090a35050565b6001600160a01b038316611af95760405162461bcd60e51b8152602060048201526024808201527f45524332303a20617070726f76652066726f6d20746865207a65726f206164646044820152637265737360e01b6064820152608401610af8565b6001600160a01b038216611b5a5760405162461bcd60e51b815260206004820152602260248201527f45524332303a20617070726f766520746f20746865207a65726f206164647265604482015261737360f01b6064820152608401610af8565b6001600160a01b0383811660008181526066602090815260408083209487168084529482529182902085905590518481527f8c5be1e5ebec7d5bd14f71427d1e84f3dd0314c0f7b2291e5b200ac8c7c3b925910160405180910390a3505050565b600080611bc7856121a6565b9150819050838110156117f2576040516371c4efed60e01b81526004810182905260248101859052604401610af8565b6000610ba07f000000000000000000000000000000000000000000000000000000000000000083613852565b63ffffffff81166000908152600080516020613be58339815191526020819052604082205480610d915760405163f6ff4fb760e01b815263ffffffff85166004820152602401610af8565b6000611c80611c7d8787612414565b90565b90506000611cac82611c9a611c958a8a61242c565b61212f565b611ca760208d018d61318a565b61244f565b90506028861115611d73576000611ce9611ccc60608c0160408d016130e8565b611cd960208d018d61318a565b84611ce48c8c612463565b6124ae565b604051633e5ac80960e11b81529091506001600160a01b037f00000000000000000000000000000000000000000000000000000000000000001690637cb5901290611d3f9086908d906000908790600401613874565b600060405180830381600087803b158015611d5957600080fd5b505af1158015611d6d573d6000803e3d6000fd5b50505050505b6001600160a01b038216887fefed6d3500546b29533b128a29e3a94d70788727f0507505ac12eaf2e578fd9c611dac60208d018d61318a565b6040805163ffffffff9092168252602082018690520160405180910390a3505050505050505050565b6000611de184846117b4565b90506000198114610b865781811015611e3c5760405162461bcd60e51b815260206004820152601d60248201527f45524332303a20696e73756666696369656e7420616c6c6f77616e63650000006044820152606401610af8565b610b868484848403611a97565b6001600160a01b038316611ead5760405162461bcd60e51b815260206004820152602560248201527f45524332303a207472616e736665722066726f6d20746865207a65726f206164604482015264647265737360d81b6064820152608401610af8565b6001600160a01b038216611f0f5760405162461bcd60e51b815260206004820152602360248201527f45524332303a207472616e7366657220746f20746865207a65726f206164647260448201526265737360e81b6064820152608401610af8565b6001600160a01b03831660009081526065602052604090205481811015611f875760405162461bcd60e51b815260206004820152602660248201527f45524332303a207472616e7366657220616d6f756e7420657863656564732062604482015265616c616e636560d01b6064820152608401610af8565b6001600160a01b0380851660008181526065602052604080822086860390559286168082529083902080548601905591517fddf252ad1be2c89b69c2b068fc378daa952ba7f163c4a11628f55a4df523b3ef90611fe79086815260200190565b60405180910390a3610b86565b6033546001600160a01b03163314610ff75760405162461bcd60e51b815260206004820181905260248201527f4f776e61626c653a2063616c6c6572206973206e6f7420746865206f776e65726044820152606401610af8565b60408051808201909152600080825260208201527f00000000000000000000000000000000000000000000000000000000000000006001600160a01b031663ddc28c586040518060a001604052808863ffffffff1681526020016120b189611c23565b8152602001878152602001868152602001851515815250306040518363ffffffff1660e01b81526004016120e69291906138a5565b6040805180830381865afa158015612102573d6000803e3d6000fd5b505050506040513d601f19601f82011682018060405250810190612126919061394e565b95945050505050565b6000610ba07f00000000000000000000000000000000000000000000000000000000000000006001600160401b03841661396a565b60006121736002828486613648565b61217c91613981565b60f01c905060038114611a11578282604051639a6d49cd60e01b8152600401610af892919061369a565b60007f00000000000000000000000000000000000000000000000000000000000000006121d38184613852565b610ba0919061396a565b6000806121eb858585611bbb565b90925090506117f233836124e0565b612202612adf565b60006122118460000151612614565b60208501519091501561222b5761222b846020015161263c565b7f00000000000000000000000000000000000000000000000000000000000000006001600160a01b0316632637a450826040518060a001604052808b63ffffffff16815260200161227b8c611c23565b81526020018a815260200189815260200160008960200151111515815250866040518463ffffffff1660e01b81526004016122b79291906138a5565b60806040518083038185885af11580156122d5573d6000803e3d6000fd5b50505050506040513d601f19601f820116820180604052508101906122fa91906139b1565b979650505050505050565b805160609015158061234e57848460405160200161233a92919091825260c01b6001600160c01b031916602082015260280190565b604051602081830303815290604052612375565b848433856040516020016123659493929190613a18565b6040516020818303038152906040525b9150935093915050565b600054610100900460ff166123a65760405162461bcd60e51b8152600401610af890613807565b6123b0828261271e565b5050565b600054610100900460ff166123db5760405162461bcd60e51b8152600401610af890613807565b6118708161275e565b600054610100900460ff1661240b5760405162461bcd60e51b8152600401610af890613807565b610ff733611a45565b60006124236020828486613648565b610d9191613a5b565b600061243c602860208486613648565b61244591613a79565b60c01c9392505050565b600061245b848461278e565b509092915050565b60606124728260288186613648565b8080601f016020809104026020016040519081016040528093929190818152602001838380828437600092019190915250929695505050505050565b6060848484846040516020016124c79493929190613aa7565b6040516020818303038152906040529050949350505050565b6001600160a01b0382166125405760405162461bcd60e51b815260206004820152602160248201527f45524332303a206275726e2066726f6d20746865207a65726f206164647265736044820152607360f81b6064820152608401610af8565b6001600160a01b038216600090815260656020526040902054818110156125b45760405162461bcd60e51b815260206004820152602260248201527f45524332303a206275726e20616d6f756e7420657863656564732062616c616e604482015261636560f01b6064820152608401610af8565b6001600160a01b03831660008181526065602090815260408083208686039055606780548790039055518581529192917fddf252ad1be2c89b69c2b068fc378daa952ba7f163c4a11628f55a4df523b3ef910160405180910390a3505050565b6000813414612638576040516304fb820960e51b8152346004820152602401610af8565b5090565b60007f00000000000000000000000000000000000000000000000000000000000000006001600160a01b031663e4fe1d946040518163ffffffff1660e01b8152600401602060405180830381865afa15801561269c573d6000803e3d6000fd5b505050506040513d601f19601f820116820180604052508101906126c09190613af6565b90506001600160a01b0381166126e9576040516329b99a9560e11b815260040160405180910390fd5b6123b06001600160a01b038216337f00000000000000000000000000000000000000000000000000000000000000008561284f565b600054610100900460ff166127455760405162461bcd60e51b8152600401610af890613807565b60686127518382613b13565b506069611a118282613b13565b600054610100900460ff166127855760405162461bcd60e51b8152600401610af890613807565b611870816128a9565b6001600160a01b0382166127e45760405162461bcd60e51b815260206004820152601f60248201527f45524332303a206d696e7420746f20746865207a65726f2061646472657373006044820152606401610af8565b80606760008282546127f69190613382565b90915550506001600160a01b0382166000818152606560209081526040808320805486019055518481527fddf252ad1be2c89b69c2b068fc378daa952ba7f163c4a11628f55a4df523b3ef910160405180910390a35050565b604080516001600160a01b0385811660248301528416604482015260648082018490528251808303909101815260849091019091526020810180516001600160e01b03166323b872dd60e01b179052610b869085906128f7565b600054610100900460ff166128d05760405162461bcd60e51b8152600401610af890613807565b6001600160a01b03811661169357604051632d618d8160e21b815260040160405180910390fd5b600061294c826040518060400160405280602081526020017f5361666545524332303a206c6f772d6c6576656c2063616c6c206661696c6564815250856001600160a01b03166129cc9092919063ffffffff16565b905080516000148061296d57508080602001905181019061296d91906137ea565b611a115760405162461bcd60e51b815260206004820152602a60248201527f5361666545524332303a204552433230206f7065726174696f6e20646964206e6044820152691bdd081cdd58d8d9595960b21b6064820152608401610af8565b60606113e7848460008585600080866001600160a01b031685876040516129f39190613bd2565b60006040518083038185875af1925050503d8060008114612a30576040519150601f19603f3d011682016040523d82523d6000602084013e612a35565b606091505b50915091506122fa8783838760608315612ab0578251600003612aa9576001600160a01b0385163b612aa95760405162461bcd60e51b815260206004820152601d60248201527f416464726573733a2063616c6c20746f206e6f6e2d636f6e74726163740000006044820152606401610af8565b50816113e7565b6113e78383815115612ac55781518083602001fd5b8060405162461bcd60e51b8152600401610af89190612bf7565b60405180606001604052806000801916815260200160006001600160401b03168152602001612b21604051806040016040528060008152602001600081525090565b905290565b600060e08284031215612b3857600080fd5b50919050565b60008060408385031215612b5157600080fd5b82356001600160401b03811115612b6757600080fd5b612b7385828601612b26565b95602094909401359450505050565b60005b83811015612b9d578181015183820152602001612b85565b50506000910152565b60008151808452612bbe816020860160208601612b82565b601f01601f19169290920160200192915050565b604081526000612be56040830185612ba6565b82810360208401526121268185612ba6565b602081526000610d916020830184612ba6565b634e487b7160e01b600052604160045260246000fd5b604080519081016001600160401b0381118282101715612c4257612c42612c0a565b60405290565b604051601f8201601f191681016001600160401b0381118282101715612c7057612c70612c0a565b604052919050565b60006001600160401b03821115612c9157612c91612c0a565b50601f01601f191660200190565b600082601f830112612cb057600080fd5b8135612cc3612cbe82612c78565b612c48565b818152846020838601011115612cd857600080fd5b816020850160208301376000918101602001919091529392505050565b6001600160a01b038116811461187057600080fd5b600080600060608486031215612d1f57600080fd5b83356001600160401b0380821115612d3657600080fd5b612d4287838801612c9f565b94506020860135915080821115612d5857600080fd5b50612d6586828701612c9f565b9250506040840135612d7681612cf5565b809150509250925092565b60008060408385031215612d9457600080fd5b8235612d9f81612cf5565b946020939093013593505050565b600060208284031215612dbf57600080fd5b81356001600160401b03811115612dd557600080fd5b6113e784828501612b26565b8351815260208085015190820152600060a08201604060a0604085015281865180845260c08601915060c08160051b8701019350602080890160005b83811015612e5c5788870360bf19018552815180518852830151838801879052612e4987890182612ba6565b9750509382019390820190600101612e1d565b505087516060880152505050602085015160808501525090506113e7565b600060208284031215612e8c57600080fd5b5035919050565b600060608284031215612b3857600080fd5b60008083601f840112612eb757600080fd5b5081356001600160401b03811115612ece57600080fd5b6020830191508360208285010111156109c657600080fd5b600080600080600080600060e0888a031215612f0157600080fd5b612f0b8989612e93565b96506060880135955060808801356001600160401b0380821115612f2e57600080fd5b612f3a8b838c01612ea5565b909750955060a08a01359150612f4f82612cf5565b90935060c08901359080821115612f6557600080fd5b50612f728a828b01612ea5565b989b979a50959850939692959293505050565b600080600060608486031215612f9a57600080fd5b8335612fa581612cf5565b92506020840135612fb581612cf5565b929592945050506040919091013590565b803563ffffffff81168114612fda57600080fd5b919050565b60008060408385031215612ff257600080fd5b612d9f83612fc6565b801515811461187057600080fd5b6000806040838503121561301c57600080fd5b82356001600160401b0381111561303257600080fd5b61303e85828601612b26565b925050602083013561304f81612ffb565b809150509250929050565b815181526020808301519082015260408101610ba0565b803561ffff81168114612fda57600080fd5b6000806040838503121561309657600080fd5b61309f83612fc6565b91506130ad60208401613071565b90509250929050565b6000602082840312156130c857600080fd5b8135610d9181612cf5565b6001600160401b038116811461187057600080fd5b6000602082840312156130fa57600080fd5b8135610d91816130d3565b60008083601f84011261311757600080fd5b5081356001600160401b0381111561312e57600080fd5b6020830191508360208260051b85010111156109c657600080fd5b6000806020838503121561315c57600080fd5b82356001600160401b0381111561317257600080fd5b61317e85828601613105565b90969095509350505050565b60006020828403121561319c57600080fd5b610d9182612fc6565b600080600080606085870312156131bb57600080fd5b6131c485612fc6565b93506131d260208601613071565b925060408501356001600160401b038111156131ed57600080fd5b6131f987828801612ea5565b95989497509550505050565b6000806000838503608081121561321b57600080fd5b84356001600160401b0381111561323157600080fd5b61323d87828801612b26565b9450506040601f198201121561325257600080fd5b506020840191506060840135612d7681612cf5565b600060c082019050835182526001600160401b03602085015116602083015260408401516132a2604084018280518252602090810151910152565b5082516080830152602083015160a0830152610d91565b600080604083850312156132cc57600080fd5b82356132d781612cf5565b9150602083013561304f81612cf5565b6000806000606084860312156132fc57600080fd5b833592506020840135915061331360408501612fc6565b90509250925092565b60006060828403121561332e57600080fd5b610d918383612e93565b600181811c9082168061334c57607f821691505b602082108103612b3857634e487b7160e01b600052602260045260246000fd5b634e487b7160e01b600052601160045260246000fd5b80820180821115610ba057610ba061336c565b634e487b7160e01b600052603260045260246000fd5b60008235605e198336030181126133c157600080fd5b9190910192915050565b6000808335601e198436030181126133e257600080fd5b8301803591506001600160401b038211156133fc57600080fd5b6020019150368190038213156109c657600080fd5b60006020828403121561342357600080fd5b610d9182613071565b601f821115611a11576000816000526020600020601f850160051c810160208610156134555750805b601f850160051c820191505b8181101561347457828155600101613461565b505050505050565b6001600160401b0383111561349357613493612c0a565b6134a7836134a18354613338565b8361342c565b6000601f8411600181146134db57600085156134c35750838201355b600019600387901b1c1916600186901b17835561170a565b600083815260209020601f19861690835b8281101561350c57868501358255602094850194600190920191016134ec565b50868210156135295760001960f88860031b161c19848701351681555b505060018560011b0183555050505050565b81835281816020850137506000828201602090810191909152601f909101601f19169091010190565b60208082528181018390526000906040808401600586901b8501820187855b8881101561363a57878303603f190184528135368b9003605e190181126135a957600080fd5b8a01606063ffffffff6135bb83612fc6565b16855261ffff6135cc898401613071565b168886015286820135601e198336030181126135e757600080fd5b9091018781019190356001600160401b0381111561360457600080fd5b80360383131561361357600080fd5b8188870152613625828701828561353b565b96890196955050509186019150600101613583565b509098975050505050505050565b6000808585111561365857600080fd5b8386111561366557600080fd5b5050820193919092039150565b60008451613684818460208901612b82565b8201838582376000930192835250909392505050565b6020815260006113e760208301848661353b565b6000823561013e198336030181126133c157600080fd5b63ffffffff6136d389612fc6565b16815260208801356020820152600060408901356136f0816130d3565b6001600160401b03811660408401525087606083015260e0608083015261371b60e08301878961353b565b6001600160a01b03861660a084015282810360c084015261373d81858761353b565b9a9950505050505050505050565b60006020828403121561375d57600080fd5b81516001600160401b0381111561377357600080fd5b8201601f8101841361378457600080fd5b8051613792612cbe82612c78565b8181528560208385010111156137a757600080fd5b612126826020830160208601612b82565b6000604082840312156137ca57600080fd5b6137d2612c20565b82358152602083013560208201528091505092915050565b6000602082840312156137fc57600080fd5b8151610d9181612ffb565b6020808252602b908201527f496e697469616c697a61626c653a20636f6e7472616374206973206e6f74206960408201526a6e697469616c697a696e6760a81b606082015260800190565b60008261386f57634e487b7160e01b600052601260045260246000fd5b500490565b60018060a01b038516815283602082015261ffff83166040820152608060608201526000610e846080830184612ba6565b6040815263ffffffff8351166040820152602083015160608201526000604084015160a060808401526138db60e0840182612ba6565b90506060850151603f198483030160a08501526138f88282612ba6565b60809690960151151560c08501525050506001600160a01b039190911660209091015290565b60006040828403121561393057600080fd5b613938612c20565b9050815181526020820151602082015292915050565b60006040828403121561396057600080fd5b610d91838361391e565b8082028115828204841417610ba057610ba061336c565b6001600160f01b031981358181169160028510156139a95780818660020360031b1b83161692505b505092915050565b6000608082840312156139c357600080fd5b604051606081018181106001600160401b03821117156139e5576139e5612c0a565b6040528251815260208301516139fa816130d3565b6020820152613a0c846040850161391e565b60408201529392505050565b8481526001600160401b0360c01b8460c01b16602082015282602882015260008251613a4b816048850160208701612b82565b9190910160480195945050505050565b80356020831015610ba057600019602084900360031b1b1692915050565b6001600160c01b031981358181169160088510156139a95760089490940360031b84901b1690921692915050565b6001600160401b0360c01b8560c01b16815263ffffffff60e01b8460e01b16600882015282600c82015260008251613ae681602c850160208701612b82565b91909101602c0195945050505050565b600060208284031215613b0857600080fd5b8151610d9181612cf5565b81516001600160401b03811115613b2c57613b2c612c0a565b613b4081613b3a8454613338565b8461342c565b602080601f831160018114613b755760008415613b5d5750858301515b600019600386901b1c1916600185901b178555613474565b600085815260208120601f198616915b82811015613ba457888601518255948401946001909101908401613b85565b5085821015613bc25787850151600019600388901b60f8161c191681555b5050505050600190811b01905550565b600082516133c1818460208701612b8256fe72ab1bc1039b79dc4724ffca13de82c96834302d3c7e0d4252232d4b2dd8f900a2646970667358221220a8a0e50bccbbc933c06bfedb6ea8aee8f5e90c207919f0c7c5d8cf884b5bda4564736f6c63430008160033","linkReferences":{}},"methodIdentifiers":{"SEND()":"1f5e1334","SEND_AND_CALL()":"134d4f25","allowInitializePath((uint32,bytes32,uint64))":"ff7bd03d","allowance(address,address)":"dd62ed3e","approvalRequired()":"9f68b964","approve(address,uint256)":"095ea7b3","balanceOf(address)":"70a08231","buildMsgAndOptions((uint32,bytes32,uint256,uint256,bytes,bytes,bytes),uint256)":"056d62de","combineOptions(uint32,uint16,bytes)":"bc70b354","composeMsgSender()":"b92d0eff","debitView(uint256,uint256,uint32)":"f0163023","decimalConversionRate()":"963efcaa","decimals()":"313ce567","decreaseAllowance(address,uint256)":"a457c2d7","endpoint()":"5e280f11","enforcedOptions(uint32,uint16)":"5535d461","increaseAllowance(address,uint256)":"39509351","initialize(string,string,address)":"077f224a","isPeer(uint32,bytes32)":"5a0dfe4d","lzReceive((uint32,bytes32,uint64),bytes32,bytes,address,bytes)":"13137d65","lzReceiveAndRevert(((uint32,bytes32,uint64),uint32,address,bytes32,uint256,address,bytes,bytes)[])":"bd815db0","lzReceiveSimulate((uint32,bytes32,uint64),bytes32,bytes,address,bytes)":"d045a0dc","msgInspector()":"111ecdad","name()":"06fdde03","nextNonce(uint32,bytes32)":"7d25a05e","oApp()":"52ae2879","oAppVersion()":"17442b70","oftVersion()":"156a0d0f","owner()":"8da5cb5b","peers(uint32)":"bb0b6a53","preCrime()":"b731ea0a","quoteOFT((uint32,bytes32,uint256,uint256,bytes,bytes,bytes))":"0d35b415","quoteSend((uint32,bytes32,uint256,uint256,bytes,bytes,bytes),bool)":"3b6f743b","removeDust(uint256)":"c0779988","renounceOwnership()":"715018a6","send((uint32,bytes32,uint256,uint256,bytes,bytes,bytes),(uint256,uint256),address)":"c7c7f5b3","setDelegate(address)":"ca5eb5e1","setEnforcedOptions((uint32,uint16,bytes)[])":"b98bd070","setMsgInspector(address)":"6fc1b31e","setPeer(uint32,bytes32)":"3400288b","setPreCrime(address)":"d4243885","sharedDecimals()":"857749b0","symbol()":"95d89b41","toLD(uint64)":"b3a5abeb","toSD(uint256)":"0e78842c","token()":"fc0c546a","totalSupply()":"18160ddd","transfer(address,uint256)":"a9059cbb","transferFrom(address,address,uint256)":"23b872dd","transferOwnership(address)":"f2fde38b","version()":"54fd4d50"},"id":0}