{"abi":[{"type":"constructor","inputs":[{"name":"_name","type":"string","internalType":"string"},{"name":"_symbol","type":"string","internalType":"string"},{"name":"_lzEndpoint","type":"address","internalType":"address"},{"name":"_delegate","type":"address","internalType":"address"}],"stateMutability":"nonpayable"},{"type":"function","name":"SEND","inputs":[],"outputs":[{"name":"","type":"uint16","internalType":"uint16"}],"stateMutability":"view"},{"type":"function","name":"SEND_AND_CALL","inputs":[],"outputs":[{"name":"","type":"uint16","internalType":"uint16"}],"stateMutability":"view"},{"type":"function","name":"allowInitializePath","inputs":[{"name":"origin","type":"tuple","internalType":"struct Origin","components":[{"name":"srcEid","type":"uint32","internalType":"uint32"},{"name":"sender","type":"bytes32","internalType":"bytes32"},{"name":"nonce","type":"uint64","internalType":"uint64"}]}],"outputs":[{"name":"","type":"bool","internalType":"bool"}],"stateMutability":"view"},{"type":"function","name":"allowance","inputs":[{"name":"owner","type":"address","internalType":"address"},{"name":"spender","type":"address","internalType":"address"}],"outputs":[{"name":"","type":"uint256","internalType":"uint256"}],"stateMutability":"view"},{"type":"function","name":"approvalRequired","inputs":[],"outputs":[{"name":"","type":"bool","internalType":"bool"}],"stateMutability":"pure"},{"type":"function","name":"approve","inputs":[{"name":"spender","type":"address","internalType":"address"},{"name":"amount","type":"uint256","internalType":"uint256"}],"outputs":[{"name":"","type":"bool","internalType":"bool"}],"stateMutability":"nonpayable"},{"type":"function","name":"balanceOf","inputs":[{"name":"account","type":"address","internalType":"address"}],"outputs":[{"name":"","type":"uint256","internalType":"uint256"}],"stateMutability":"view"},{"type":"function","name":"combineOptions","inputs":[{"name":"_eid","type":"uint32","internalType":"uint32"},{"name":"_msgType","type":"uint16","internalType":"uint16"},{"name":"_extraOptions","type":"bytes","internalType":"bytes"}],"outputs":[{"name":"","type":"bytes","internalType":"bytes"}],"stateMutability":"view"},{"type":"function","name":"decimalConversionRate","inputs":[],"outputs":[{"name":"","type":"uint256","internalType":"uint256"}],"stateMutability":"view"},{"type":"function","name":"decimals","inputs":[],"outputs":[{"name":"","type":"uint8","internalType":"uint8"}],"stateMutability":"view"},{"type":"function","name":"decreaseAllowance","inputs":[{"name":"spender","type":"address","internalType":"address"},{"name":"subtractedValue","type":"uint256","internalType":"uint256"}],"outputs":[{"name":"","type":"bool","internalType":"bool"}],"stateMutability":"nonpayable"},{"type":"function","name":"endpoint","inputs":[],"outputs":[{"name":"","type":"address","internalType":"contract ILayerZeroEndpointV2"}],"stateMutability":"view"},{"type":"function","name":"enforcedOptions","inputs":[{"name":"eid","type":"uint32","internalType":"uint32"},{"name":"msgType","type":"uint16","internalType":"uint16"}],"outputs":[{"name":"enforcedOption","type":"bytes","internalType":"bytes"}],"stateMutability":"view"},{"type":"function","name":"increaseAllowance","inputs":[{"name":"spender","type":"address","internalType":"address"},{"name":"addedValue","type":"uint256","internalType":"uint256"}],"outputs":[{"name":"","type":"bool","internalType":"bool"}],"stateMutability":"nonpayable"},{"type":"function","name":"isComposeMsgSender","inputs":[{"name":"","type":"tuple","internalType":"struct Origin","components":[{"name":"srcEid","type":"uint32","internalType":"uint32"},{"name":"sender","type":"bytes32","internalType":"bytes32"},{"name":"nonce","type":"uint64","internalType":"uint64"}]},{"name":"","type":"bytes","internalType":"bytes"},{"name":"_sender","type":"address","internalType":"address"}],"outputs":[{"name":"","type":"bool","internalType":"bool"}],"stateMutability":"view"},{"type":"function","name":"isPeer","inputs":[{"name":"_eid","type":"uint32","internalType":"uint32"},{"name":"_peer","type":"bytes32","internalType":"bytes32"}],"outputs":[{"name":"","type":"bool","internalType":"bool"}],"stateMutability":"view"},{"type":"function","name":"lzReceive","inputs":[{"name":"_origin","type":"tuple","internalType":"struct Origin","components":[{"name":"srcEid","type":"uint32","internalType":"uint32"},{"name":"sender","type":"bytes32","internalType":"bytes32"},{"name":"nonce","type":"uint64","internalType":"uint64"}]},{"name":"_guid","type":"bytes32","internalType":"bytes32"},{"name":"_message","type":"bytes","internalType":"bytes"},{"name":"_executor","type":"address","internalType":"address"},{"name":"_extraData","type":"bytes","internalType":"bytes"}],"outputs":[],"stateMutability":"payable"},{"type":"function","name":"lzReceiveAndRevert","inputs":[{"name":"_packets","type":"tuple[]","internalType":"struct InboundPacket[]","components":[{"name":"origin","type":"tuple","internalType":"struct Origin","components":[{"name":"srcEid","type":"uint32","internalType":"uint32"},{"name":"sender","type":"bytes32","internalType":"bytes32"},{"name":"nonce","type":"uint64","internalType":"uint64"}]},{"name":"dstEid","type":"uint32","internalType":"uint32"},{"name":"receiver","type":"address","internalType":"address"},{"name":"guid","type":"bytes32","internalType":"bytes32"},{"name":"value","type":"uint256","internalType":"uint256"},{"name":"executor","type":"address","internalType":"address"},{"name":"message","type":"bytes","internalType":"bytes"},{"name":"extraData","type":"bytes","internalType":"bytes"}]}],"outputs":[],"stateMutability":"payable"},{"type":"function","name":"lzReceiveSimulate","inputs":[{"name":"_origin","type":"tuple","internalType":"struct Origin","components":[{"name":"srcEid","type":"uint32","internalType":"uint32"},{"name":"sender","type":"bytes32","internalType":"bytes32"},{"name":"nonce","type":"uint64","internalType":"uint64"}]},{"name":"_guid","type":"bytes32","internalType":"bytes32"},{"name":"_message","type":"bytes","internalType":"bytes"},{"name":"_executor","type":"address","internalType":"address"},{"name":"_extraData","type":"bytes","internalType":"bytes"}],"outputs":[],"stateMutability":"payable"},{"type":"function","name":"msgInspector","inputs":[],"outputs":[{"name":"","type":"address","internalType":"address"}],"stateMutability":"view"},{"type":"function","name":"name","inputs":[],"outputs":[{"name":"","type":"string","internalType":"string"}],"stateMutability":"view"},{"type":"function","name":"nextNonce","inputs":[{"name":"","type":"uint32","internalType":"uint32"},{"name":"","type":"bytes32","internalType":"bytes32"}],"outputs":[{"name":"nonce","type":"uint64","internalType":"uint64"}],"stateMutability":"view"},{"type":"function","name":"oApp","inputs":[],"outputs":[{"name":"","type":"address","internalType":"address"}],"stateMutability":"view"},{"type":"function","name":"oAppVersion","inputs":[],"outputs":[{"name":"senderVersion","type":"uint64","internalType":"uint64"},{"name":"receiverVersion","type":"uint64","internalType":"uint64"}],"stateMutability":"pure"},{"type":"function","name":"oftVersion","inputs":[],"outputs":[{"name":"interfaceId","type":"bytes4","internalType":"bytes4"},{"name":"version","type":"uint64","internalType":"uint64"}],"stateMutability":"pure"},{"type":"function","name":"owner","inputs":[],"outputs":[{"name":"","type":"address","internalType":"address"}],"stateMutability":"view"},{"type":"function","name":"peers","inputs":[{"name":"eid","type":"uint32","internalType":"uint32"}],"outputs":[{"name":"peer","type":"bytes32","internalType":"bytes32"}],"stateMutability":"view"},{"type":"function","name":"preCrime","inputs":[],"outputs":[{"name":"","type":"address","internalType":"address"}],"stateMutability":"view"},{"type":"function","name":"quoteOFT","inputs":[{"name":"_sendParam","type":"tuple","internalType":"struct SendParam","components":[{"name":"dstEid","type":"uint32","internalType":"uint32"},{"name":"to","type":"bytes32","internalType":"bytes32"},{"name":"amountLD","type":"uint256","internalType":"uint256"},{"name":"minAmountLD","type":"uint256","internalType":"uint256"},{"name":"extraOptions","type":"bytes","internalType":"bytes"},{"name":"composeMsg","type":"bytes","internalType":"bytes"},{"name":"oftCmd","type":"bytes","internalType":"bytes"}]}],"outputs":[{"name":"oftLimit","type":"tuple","internalType":"struct OFTLimit","components":[{"name":"minAmountLD","type":"uint256","internalType":"uint256"},{"name":"maxAmountLD","type":"uint256","internalType":"uint256"}]},{"name":"oftFeeDetails","type":"tuple[]","internalType":"struct OFTFeeDetail[]","components":[{"name":"feeAmountLD","type":"int256","internalType":"int256"},{"name":"description","type":"string","internalType":"string"}]},{"name":"oftReceipt","type":"tuple","internalType":"struct OFTReceipt","components":[{"name":"amountSentLD","type":"uint256","internalType":"uint256"},{"name":"amountReceivedLD","type":"uint256","internalType":"uint256"}]}],"stateMutability":"view"},{"type":"function","name":"quoteSend","inputs":[{"name":"_sendParam","type":"tuple","internalType":"struct SendParam","components":[{"name":"dstEid","type":"uint32","internalType":"uint32"},{"name":"to","type":"bytes32","internalType":"bytes32"},{"name":"amountLD","type":"uint256","internalType":"uint256"},{"name":"minAmountLD","type":"uint256","internalType":"uint256"},{"name":"extraOptions","type":"bytes","internalType":"bytes"},{"name":"composeMsg","type":"bytes","internalType":"bytes"},{"name":"oftCmd","type":"bytes","internalType":"bytes"}]},{"name":"_payInLzToken","type":"bool","internalType":"bool"}],"outputs":[{"name":"msgFee","type":"tuple","internalType":"struct MessagingFee","components":[{"name":"nativeFee","type":"uint256","internalType":"uint256"},{"name":"lzTokenFee","type":"uint256","internalType":"uint256"}]}],"stateMutability":"view"},{"type":"function","name":"renounceOwnership","inputs":[],"outputs":[],"stateMutability":"nonpayable"},{"type":"function","name":"send","inputs":[{"name":"_sendParam","type":"tuple","internalType":"struct SendParam","components":[{"name":"dstEid","type":"uint32","internalType":"uint32"},{"name":"to","type":"bytes32","internalType":"bytes32"},{"name":"amountLD","type":"uint256","internalType":"uint256"},{"name":"minAmountLD","type":"uint256","internalType":"uint256"},{"name":"extraOptions","type":"bytes","internalType":"bytes"},{"name":"composeMsg","type":"bytes","internalType":"bytes"},{"name":"oftCmd","type":"bytes","internalType":"bytes"}]},{"name":"_fee","type":"tuple","internalType":"struct MessagingFee","components":[{"name":"nativeFee","type":"uint256","internalType":"uint256"},{"name":"lzTokenFee","type":"uint256","internalType":"uint256"}]},{"name":"_refundAddress","type":"address","internalType":"address"}],"outputs":[{"name":"msgReceipt","type":"tuple","internalType":"struct MessagingReceipt","components":[{"name":"guid","type":"bytes32","internalType":"bytes32"},{"name":"nonce","type":"uint64","internalType":"uint64"},{"name":"fee","type":"tuple","internalType":"struct MessagingFee","components":[{"name":"nativeFee","type":"uint256","internalType":"uint256"},{"name":"lzTokenFee","type":"uint256","internalType":"uint256"}]}]},{"name":"oftReceipt","type":"tuple","internalType":"struct OFTReceipt","components":[{"name":"amountSentLD","type":"uint256","internalType":"uint256"},{"name":"amountReceivedLD","type":"uint256","internalType":"uint256"}]}],"stateMutability":"payable"},{"type":"function","name":"setDelegate","inputs":[{"name":"_delegate","type":"address","internalType":"address"}],"outputs":[],"stateMutability":"nonpayable"},{"type":"function","name":"setEnforcedOptions","inputs":[{"name":"_enforcedOptions","type":"tuple[]","internalType":"struct EnforcedOptionParam[]","components":[{"name":"eid","type":"uint32","internalType":"uint32"},{"name":"msgType","type":"uint16","internalType":"uint16"},{"name":"options","type":"bytes","internalType":"bytes"}]}],"outputs":[],"stateMutability":"nonpayable"},{"type":"function","name":"setMsgInspector","inputs":[{"name":"_msgInspector","type":"address","internalType":"address"}],"outputs":[],"stateMutability":"nonpayable"},{"type":"function","name":"setPeer","inputs":[{"name":"_eid","type":"uint32","internalType":"uint32"},{"name":"_peer","type":"bytes32","internalType":"bytes32"}],"outputs":[],"stateMutability":"nonpayable"},{"type":"function","name":"setPreCrime","inputs":[{"name":"_preCrime","type":"address","internalType":"address"}],"outputs":[],"stateMutability":"nonpayable"},{"type":"function","name":"sharedDecimals","inputs":[],"outputs":[{"name":"","type":"uint8","internalType":"uint8"}],"stateMutability":"view"},{"type":"function","name":"symbol","inputs":[],"outputs":[{"name":"","type":"string","internalType":"string"}],"stateMutability":"view"},{"type":"function","name":"token","inputs":[],"outputs":[{"name":"","type":"address","internalType":"address"}],"stateMutability":"view"},{"type":"function","name":"totalSupply","inputs":[],"outputs":[{"name":"","type":"uint256","internalType":"uint256"}],"stateMutability":"view"},{"type":"function","name":"transfer","inputs":[{"name":"to","type":"address","internalType":"address"},{"name":"amount","type":"uint256","internalType":"uint256"}],"outputs":[{"name":"","type":"bool","internalType":"bool"}],"stateMutability":"nonpayable"},{"type":"function","name":"transferFrom","inputs":[{"name":"from","type":"address","internalType":"address"},{"name":"to","type":"address","internalType":"address"},{"name":"amount","type":"uint256","internalType":"uint256"}],"outputs":[{"name":"","type":"bool","internalType":"bool"}],"stateMutability":"nonpayable"},{"type":"function","name":"transferOwnership","inputs":[{"name":"newOwner","type":"address","internalType":"address"}],"outputs":[],"stateMutability":"nonpayable"},{"type":"event","name":"Approval","inputs":[{"name":"owner","type":"address","indexed":true,"internalType":"address"},{"name":"spender","type":"address","indexed":true,"internalType":"address"},{"name":"value","type":"uint256","indexed":false,"internalType":"uint256"}],"anonymous":false},{"type":"event","name":"EnforcedOptionSet","inputs":[{"name":"_enforcedOptions","type":"tuple[]","indexed":false,"internalType":"struct EnforcedOptionParam[]","components":[{"name":"eid","type":"uint32","internalType":"uint32"},{"name":"msgType","type":"uint16","internalType":"uint16"},{"name":"options","type":"bytes","internalType":"bytes"}]}],"anonymous":false},{"type":"event","name":"MsgInspectorSet","inputs":[{"name":"inspector","type":"address","indexed":false,"internalType":"address"}],"anonymous":false},{"type":"event","name":"OFTReceived","inputs":[{"name":"guid","type":"bytes32","indexed":true,"internalType":"bytes32"},{"name":"srcEid","type":"uint32","indexed":false,"internalType":"uint32"},{"name":"toAddress","type":"address","indexed":true,"internalType":"address"},{"name":"amountReceivedLD","type":"uint256","indexed":false,"internalType":"uint256"}],"anonymous":false},{"type":"event","name":"OFTSent","inputs":[{"name":"guid","type":"bytes32","indexed":true,"internalType":"bytes32"},{"name":"dstEid","type":"uint32","indexed":false,"internalType":"uint32"},{"name":"fromAddress","type":"address","indexed":true,"internalType":"address"},{"name":"amountSentLD","type":"uint256","indexed":false,"internalType":"uint256"},{"name":"amountReceivedLD","type":"uint256","indexed":false,"internalType":"uint256"}],"anonymous":false},{"type":"event","name":"OwnershipTransferred","inputs":[{"name":"previousOwner","type":"address","indexed":true,"internalType":"address"},{"name":"newOwner","type":"address","indexed":true,"internalType":"address"}],"anonymous":false},{"type":"event","name":"PeerSet","inputs":[{"name":"eid","type":"uint32","indexed":false,"internalType":"uint32"},{"name":"peer","type":"bytes32","indexed":false,"internalType":"bytes32"}],"anonymous":false},{"type":"event","name":"PreCrimeSet","inputs":[{"name":"preCrimeAddress","type":"address","indexed":false,"internalType":"address"}],"anonymous":false},{"type":"event","name":"Transfer","inputs":[{"name":"from","type":"address","indexed":true,"internalType":"address"},{"name":"to","type":"address","indexed":true,"internalType":"address"},{"name":"value","type":"uint256","indexed":false,"internalType":"uint256"}],"anonymous":false},{"type":"error","name":"InvalidDelegate","inputs":[]},{"type":"error","name":"InvalidEndpointCall","inputs":[]},{"type":"error","name":"InvalidLocalDecimals","inputs":[]},{"type":"error","name":"InvalidOptions","inputs":[{"name":"options","type":"bytes","internalType":"bytes"}]},{"type":"error","name":"LzTokenUnavailable","inputs":[]},{"type":"error","name":"NoPeer","inputs":[{"name":"eid","type":"uint32","internalType":"uint32"}]},{"type":"error","name":"NotEnoughNative","inputs":[{"name":"msgValue","type":"uint256","internalType":"uint256"}]},{"type":"error","name":"OnlyEndpoint","inputs":[{"name":"addr","type":"address","internalType":"address"}]},{"type":"error","name":"OnlyPeer","inputs":[{"name":"eid","type":"uint32","internalType":"uint32"},{"name":"sender","type":"bytes32","internalType":"bytes32"}]},{"type":"error","name":"OnlySelf","inputs":[]},{"type":"error","name":"SimulationResult","inputs":[{"name":"result","type":"bytes","internalType":"bytes"}]},{"type":"error","name":"SlippageExceeded","inputs":[{"name":"amountLD","type":"uint256","internalType":"uint256"},{"name":"minAmountLD","type":"uint256","internalType":"uint256"}]}],"bytecode":{"object":"0x60c06040523480156200001157600080fd5b5060405162003ad138038062003ad18339810160408190526200003491620002a1565b83838383838360128484818181816200004d3362000167565b6001600160a01b0380831660805281166200007b57604051632d618d8160e21b815260040160405180910390fd5b60805160405163ca5eb5e160e01b81526001600160a01b0383811660048301529091169063ca5eb5e190602401600060405180830381600087803b158015620000c357600080fd5b505af1158015620000d8573d6000803e3d6000fd5b5050505050505050620000f0620001b760201b60201c565b60ff168360ff16101562000117576040516301e9714b60e41b815260040160405180910390fd5b6200012460068462000346565b6200013190600a62000465565b60a052506008915062000147905083826200050e565b5060096200015682826200050e565b5050505050505050505050620005da565b600080546001600160a01b038381166001600160a01b0319831681178455604051919092169283917f8be0079c531659141344cd1fd0a4f28419497f9722a3daafe3b4186f6b6457e09190a35050565b600690565b634e487b7160e01b600052604160045260246000fd5b600082601f830112620001e457600080fd5b81516001600160401b0380821115620002015762000201620001bc565b604051601f8301601f19908116603f011681019082821181831017156200022c576200022c620001bc565b81604052838152602092508660208588010111156200024a57600080fd5b600091505b838210156200026e57858201830151818301840152908201906200024f565b6000602085830101528094505050505092915050565b80516001600160a01b03811681146200029c57600080fd5b919050565b60008060008060808587031215620002b857600080fd5b84516001600160401b0380821115620002d057600080fd5b620002de88838901620001d2565b95506020870151915080821115620002f557600080fd5b506200030487828801620001d2565b935050620003156040860162000284565b9150620003256060860162000284565b905092959194509250565b634e487b7160e01b600052601160045260246000fd5b60ff828116828216039081111562000362576200036262000330565b92915050565b600181815b80851115620003a95781600019048211156200038d576200038d62000330565b808516156200039b57918102915b93841c93908002906200036d565b509250929050565b600082620003c25750600162000362565b81620003d15750600062000362565b8160018114620003ea5760028114620003f55762000415565b600191505062000362565b60ff84111562000409576200040962000330565b50506001821b62000362565b5060208310610133831016604e8410600b84101617156200043a575081810a62000362565b62000446838362000368565b80600019048211156200045d576200045d62000330565b029392505050565b60006200047660ff841683620003b1565b9392505050565b600181811c908216806200049257607f821691505b602082108103620004b357634e487b7160e01b600052602260045260246000fd5b50919050565b601f82111562000509576000816000526020600020601f850160051c81016020861015620004e45750805b601f850160051c820191505b818110156200050557828155600101620004f0565b5050505b505050565b81516001600160401b038111156200052a576200052a620001bc565b62000542816200053b84546200047d565b84620004b9565b602080601f8311600181146200057a5760008415620005615750858301515b600019600386901b1c1916600185901b17855562000505565b600085815260208120601f198616915b82811015620005ab578886015182559484019460019091019084016200058a565b5085821015620005ca5787850151600019600388901b60f8161c191681555b5050505050600190811b01905550565b60805160a05161348b620006466000396000818161065401528181611dd601528181611e4b0152611f16015260008181610513015281816109bd0152818161117c0152818161157301528181611a5301528181611cfa0152818161211501526121ce015261348b6000f3fe6080604052600436106102675760003560e01c80637d25a05e11610144578063bb0b6a53116100b6578063d045a0dc1161007a578063d045a0dc146107ab578063d4243885146107be578063dd62ed3e146107de578063f2fde38b146107fe578063fc0c546a14610497578063ff7bd03d1461081e57600080fd5b8063bb0b6a531461070a578063bc70b35414610737578063bd815db014610757578063c7c7f5b31461076a578063ca5eb5e11461078b57600080fd5b8063963efcaa11610108578063963efcaa146106425780639f68b96414610676578063a457c2d71461068a578063a9059cbb146106aa578063b731ea0a146106ca578063b98bd070146106ea57600080fd5b80637d25a05e146105a057806382413eac146105db578063857749b0146105fb5780638da5cb5b1461060f57806395d89b411461062d57600080fd5b8063313ce567116101dd5780635535d461116101a15780635535d461146104aa5780635a0dfe4d146104ca5780635e280f11146105015780636fc1b31e1461053557806370a0823114610555578063715018a61461058b57600080fd5b8063313ce567146104085780633400288b1461042a578063395093511461044a5780633b6f743b1461046a57806352ae28791461049757600080fd5b8063134d4f251161022f578063134d4f2514610343578063156a0d0f1461036b57806317442b701461039257806318160ddd146103b45780631f5e1334146103d357806323b872dd146103e857600080fd5b806306fdde031461026c578063095ea7b3146102975780630d35b415146102c7578063111ecdad146102f657806313137d651461032e575b600080fd5b34801561027857600080fd5b5061028161083e565b60405161028e9190612576565b60405180910390f35b3480156102a357600080fd5b506102b76102b236600461259e565b6108d0565b604051901515815260200161028e565b3480156102d357600080fd5b506102e76102e23660046125e2565b6108ea565b60405161028e93929190612616565b34801561030257600080fd5b50600454610316906001600160a01b031681565b6040516001600160a01b03909116815260200161028e565b61034161033c366004612709565b6109bb565b005b34801561034f57600080fd5b50610358600281565b60405161ffff909116815260200161028e565b34801561037757600080fd5b506040805162b9270b60e21b8152600160208201520161028e565b34801561039e57600080fd5b506040805160018152600260208201520161028e565b3480156103c057600080fd5b506007545b60405190815260200161028e565b3480156103df57600080fd5b50610358600181565b3480156103f457600080fd5b506102b76104033660046127a8565b610a7b565b34801561041457600080fd5b5060125b60405160ff909116815260200161028e565b34801561043657600080fd5b50610341610445366004612802565b610aa1565b34801561045657600080fd5b506102b761046536600461259e565b610ab7565b34801561047657600080fd5b5061048a61048536600461282c565b610ad9565b60405161028e919061287d565b3480156104a357600080fd5b5030610316565b3480156104b657600080fd5b506102816104c53660046128a6565b610b40565b3480156104d657600080fd5b506102b76104e5366004612802565b63ffffffff919091166000908152600160205260409020541490565b34801561050d57600080fd5b506103167f000000000000000000000000000000000000000000000000000000000000000081565b34801561054157600080fd5b506103416105503660046128d9565b610be5565b34801561056157600080fd5b506103c56105703660046128d9565b6001600160a01b031660009081526005602052604090205490565b34801561059757600080fd5b50610341610c42565b3480156105ac57600080fd5b506105c36105bb366004612802565b600092915050565b6040516001600160401b03909116815260200161028e565b3480156105e757600080fd5b506102b76105f63660046128f6565b610c56565b34801561060757600080fd5b506006610418565b34801561061b57600080fd5b506000546001600160a01b0316610316565b34801561063957600080fd5b50610281610c6b565b34801561064e57600080fd5b506103c57f000000000000000000000000000000000000000000000000000000000000000081565b34801561068257600080fd5b5060006102b7565b34801561069657600080fd5b506102b76106a536600461259e565b610c7a565b3480156106b657600080fd5b506102b76106c536600461259e565b610d00565b3480156106d657600080fd5b50600254610316906001600160a01b031681565b3480156106f657600080fd5b506103416107053660046129a0565b610d0e565b34801561071657600080fd5b506103c56107253660046129e1565b60016020526000908152604090205481565b34801561074357600080fd5b506102816107523660046129fc565b610d28565b6103416107653660046129a0565b610ed0565b61077d610778366004612a5c565b61105a565b60405161028e929190612ac9565b34801561079757600080fd5b506103416107a63660046128d9565b611155565b6103416107b9366004612709565b6111db565b3480156107ca57600080fd5b506103416107d93660046128d9565b61120a565b3480156107ea57600080fd5b506103c56107f9366004612b1b565b611260565b34801561080a57600080fd5b506103416108193660046128d9565b61128b565b34801561082a57600080fd5b506102b7610839366004612b49565b611304565b60606008805461084d90612b65565b80601f016020809104026020016040519081016040528092919081815260200182805461087990612b65565b80156108c65780601f1061089b576101008083540402835291602001916108c6565b820191906000526020600020905b8154815290600101906020018083116108a957829003601f168201915b5050505050905090565b6000336108de81858561133a565b60019150505b92915050565b6040805180820190915260008082526020820152606061091d604051806040016040528060008152602001600081525090565b60408051808201825260008082526001600160401b03602080840182905284518381529081019094529195509182610978565b6040805180820190915260008152606060208201528152602001906001900390816109505790505b50935060008061099d604089013560608a013561099860208c018c6129e1565b61145e565b60408051808201909152918252602082015296989597505050505050565b7f00000000000000000000000000000000000000000000000000000000000000006001600160a01b03163314610a0b576040516391ac5e4f60e01b81523360048201526024015b60405180910390fd5b60208701803590610a2590610a20908a6129e1565b6114a2565b14610a6357610a3760208801886129e1565b60405163309afaf360e21b815263ffffffff909116600482015260208801356024820152604401610a02565b610a72878787878787876114de565b50505050505050565b600033610a89858285611645565b610a948585856116bf565b60019150505b9392505050565b610aa961186a565b610ab382826118c4565b5050565b6000336108de818585610aca8383611260565b610ad49190612bc5565b61133a565b60408051808201909152600080825260208201526000610b096040850135606086013561099860208801886129e1565b915050600080610b198684611919565b9092509050610b36610b2e60208801886129e1565b838388611a3d565b9695505050505050565b600360209081526000928352604080842090915290825290208054610b6490612b65565b80601f0160208091040260200160405190810160405280929190818152602001828054610b9090612b65565b8015610bdd5780601f10610bb257610100808354040283529160200191610bdd565b820191906000526020600020905b815481529060010190602001808311610bc057829003601f168201915b505050505081565b610bed61186a565b600480546001600160a01b0319166001600160a01b0383169081179091556040519081527ff0be4f1e87349231d80c36b33f9e8639658eeaf474014dee15a3e6a4d4414197906020015b60405180910390a150565b610c4a61186a565b610c546000611b1e565b565b6001600160a01b03811630145b949350505050565b60606009805461084d90612b65565b60003381610c888286611260565b905083811015610ce85760405162461bcd60e51b815260206004820152602560248201527f45524332303a2064656372656173656420616c6c6f77616e63652062656c6f77604482015264207a65726f60d81b6064820152608401610a02565b610cf5828686840361133a565b506001949350505050565b6000336108de8185856116bf565b610d1661186a565b610ab3610d238284612c79565b611b6e565b63ffffffff8416600090815260036020908152604080832061ffff87168452909152812080546060929190610d5c90612b65565b80601f0160208091040260200160405190810160405280929190818152602001828054610d8890612b65565b8015610dd55780601f10610daa57610100808354040283529160200191610dd5565b820191906000526020600020905b815481529060010190602001808311610db857829003601f168201915b505050505090508051600003610e255783838080601f016020809104026020016040519081016040528093929190818152602001838380828437600092019190915250929450610c639350505050565b6000839003610e35579050610c63565b60028310610eb357610e7c84848080601f016020809104026020016040519081016040528093929190818152602001838380828437600092019190915250611c7592505050565b80610e8a8460028188612d8e565b604051602001610e9c93929190612db8565b604051602081830303815290604052915050610c63565b8383604051639a6d49cd60e01b8152600401610a02929190612e09565b60005b81811015610fd95736838383818110610eee57610eee612e1d565b9050602002810190610f009190612e33565b9050610f33610f1260208301836129e1565b602083013563ffffffff919091166000908152600160205260409020541490565b610f3d5750610fd1565b3063d045a0dc60c08301358360a0810135610f5c610100830183612e54565b610f6d610100890160e08a016128d9565b610f7b6101208a018a612e54565b6040518963ffffffff1660e01b8152600401610f9d9796959493929190612eaf565b6000604051808303818588803b158015610fb657600080fd5b505af1158015610fca573d6000803e3d6000fd5b5050505050505b600101610ed3565b50336001600160a01b0316638e9e70996040518163ffffffff1660e01b8152600401600060405180830381865afa158015611018573d6000803e3d6000fd5b505050506040513d6000823e601f3d908101601f191682016040526110409190810190612f35565b604051638351eea760e01b8152600401610a029190612576565b6110626124df565b604080518082019091526000808252602082015260008061109933604089013560608a013561109460208c018c6129e1565b611ca1565b915091506000806110aa8984611919565b90925090506110d66110bf60208b018b6129e1565b83836110d0368d90038d018d612fa2565b8b611cc7565b60408051808201909152858152602080820186905282519298509096503391907f85496b760a4b7f8d66384b9df21b381f5d1b1e79f229a47aaf4c232edc2fe59a90611124908d018d6129e1565b6040805163ffffffff909216825260208201899052810187905260600160405180910390a350505050935093915050565b61115d61186a565b60405163ca5eb5e160e01b81526001600160a01b0382811660048301527f0000000000000000000000000000000000000000000000000000000000000000169063ca5eb5e190602401600060405180830381600087803b1580156111c057600080fd5b505af11580156111d4573d6000803e3d6000fd5b5050505050565b3330146111fb5760405163029a949d60e31b815260040160405180910390fd5b610a7287878787878787610a63565b61121261186a565b600280546001600160a01b0319166001600160a01b0383169081179091556040519081527fd48d879cef83a1c0bdda516f27b13ddb1b3f8bbac1c9e1511bb2a659c242776090602001610c37565b6001600160a01b03918216600090815260066020908152604080832093909416825291909152205490565b61129361186a565b6001600160a01b0381166112f85760405162461bcd60e51b815260206004820152602660248201527f4f776e61626c653a206e6577206f776e657220697320746865207a65726f206160448201526564647265737360d01b6064820152608401610a02565b61130181611b1e565b50565b600060208201803590600190839061131c90866129e1565b63ffffffff1681526020810191909152604001600020541492915050565b6001600160a01b03831661139c5760405162461bcd60e51b8152602060048201526024808201527f45524332303a20617070726f76652066726f6d20746865207a65726f206164646044820152637265737360e01b6064820152608401610a02565b6001600160a01b0382166113fd5760405162461bcd60e51b815260206004820152602260248201527f45524332303a20617070726f766520746f20746865207a65726f206164647265604482015261737360f01b6064820152608401610a02565b6001600160a01b0383811660008181526006602090815260408083209487168084529482529182902085905590518481527f8c5be1e5ebec7d5bd14f71427d1e84f3dd0314c0f7b2291e5b200ac8c7c3b925910160405180910390a3505050565b60008061146a85611dd2565b91508190508381101561149a576040516371c4efed60e01b81526004810182905260248101859052604401610a02565b935093915050565b63ffffffff8116600090815260016020526040812054806108e45760405163f6ff4fb760e01b815263ffffffff84166004820152602401610a02565b60006114f06114ed8787611e09565b90565b9050600061151c8261150a6115058a8a611e21565b611e44565b61151760208d018d6129e1565b611e79565b905060288611156115e357600061155961153c60608c0160408d01612fd4565b61154960208d018d6129e1565b846115548c8c611e8d565b611ed8565b604051633e5ac80960e11b81529091506001600160a01b037f00000000000000000000000000000000000000000000000000000000000000001690637cb59012906115af9086908d906000908790600401612ff1565b600060405180830381600087803b1580156115c957600080fd5b505af11580156115dd573d6000803e3d6000fd5b50505050505b6001600160a01b038216887fefed6d3500546b29533b128a29e3a94d70788727f0507505ac12eaf2e578fd9c61161c60208d018d6129e1565b6040805163ffffffff9092168252602082018690520160405180910390a3505050505050505050565b60006116518484611260565b905060001981146116b957818110156116ac5760405162461bcd60e51b815260206004820152601d60248201527f45524332303a20696e73756666696369656e7420616c6c6f77616e63650000006044820152606401610a02565b6116b9848484840361133a565b50505050565b6001600160a01b0383166117235760405162461bcd60e51b815260206004820152602560248201527f45524332303a207472616e736665722066726f6d20746865207a65726f206164604482015264647265737360d81b6064820152608401610a02565b6001600160a01b0382166117855760405162461bcd60e51b815260206004820152602360248201527f45524332303a207472616e7366657220746f20746865207a65726f206164647260448201526265737360e81b6064820152608401610a02565b6001600160a01b038316600090815260056020526040902054818110156117fd5760405162461bcd60e51b815260206004820152602660248201527f45524332303a207472616e7366657220616d6f756e7420657863656564732062604482015265616c616e636560d01b6064820152608401610a02565b6001600160a01b0380851660008181526005602052604080822086860390559286168082529083902080548601905591517fddf252ad1be2c89b69c2b068fc378daa952ba7f163c4a11628f55a4df523b3ef9061185d9086815260200190565b60405180910390a36116b9565b6000546001600160a01b03163314610c545760405162461bcd60e51b815260206004820181905260248201527f4f776e61626c653a2063616c6c6572206973206e6f7420746865206f776e65726044820152606401610a02565b63ffffffff8216600081815260016020908152604091829020849055815192835282018390527f238399d427b947898edb290f5ff0f9109849b1c3ba196a42e35f00c50a54b98b910160405180910390a15050565b6060806000611976856020013561192f86611f0f565b61193c60a0890189612e54565b8080601f016020809104026020016040519081016040528093929190818152602001838380828437600092019190915250611f3b92505050565b909350905060008161198957600161198c565b60025b90506119ac61199e60208801886129e1565b8261075260808a018a612e54565b6004549093506001600160a01b031615611a34576004805460405163043a78eb60e01b81526001600160a01b039091169163043a78eb916119f1918891889101613022565b602060405180830381865afa158015611a0e573d6000803e3d6000fd5b505050506040513d601f19601f82011682018060405250810190611a329190613047565b505b50509250929050565b60408051808201909152600080825260208201527f00000000000000000000000000000000000000000000000000000000000000006001600160a01b031663ddc28c586040518060a001604052808863ffffffff168152602001611aa0896114a2565b8152602001878152602001868152602001851515815250306040518363ffffffff1660e01b8152600401611ad5929190613064565b6040805180830381865afa158015611af1573d6000803e3d6000fd5b505050506040513d601f19601f82011682018060405250810190611b15919061310d565b95945050505050565b600080546001600160a01b038381166001600160a01b0319831681178455604051919092169283917f8be0079c531659141344cd1fd0a4f28419497f9722a3daafe3b4186f6b6457e09190a35050565b60005b8151811015611c4557611ba0828281518110611b8f57611b8f612e1d565b602002602001015160400151611c75565b818181518110611bb257611bb2612e1d565b60200260200101516040015160036000848481518110611bd457611bd4612e1d565b60200260200101516000015163ffffffff1663ffffffff1681526020019081526020016000206000848481518110611c0e57611c0e612e1d565b60200260200101516020015161ffff1661ffff1681526020019081526020016000209081611c3c9190613179565b50600101611b71565b507fbe4864a8e820971c0247f5992e2da559595f7bf076a21cb5928d443d2a13b67481604051610c379190613238565b600281015161ffff8116600314610ab35781604051639a6d49cd60e01b8152600401610a029190612576565b600080611caf85858561145e565b9092509050611cbe8683611fb5565b94509492505050565b611ccf6124df565b6000611cde84600001516120e9565b602085015190915015611cf857611cf88460200151612111565b7f00000000000000000000000000000000000000000000000000000000000000006001600160a01b0316632637a450826040518060a001604052808b63ffffffff168152602001611d488c6114a2565b81526020018a815260200189815260200160008960200151111515815250866040518463ffffffff1660e01b8152600401611d84929190613064565b60806040518083038185885af1158015611da2573d6000803e3d6000fd5b50505050506040513d601f19601f82011682018060405250810190611dc791906132c3565b979650505050505050565b60007f0000000000000000000000000000000000000000000000000000000000000000611dff818461330d565b6108e4919061332f565b6000611e186020828486612d8e565b610a9a91613346565b6000611e31602860208486612d8e565b611e3a91613364565b60c01c9392505050565b60006108e47f00000000000000000000000000000000000000000000000000000000000000006001600160401b03841661332f565b6000611e8584846121f3565b509092915050565b6060611e9c8260288186612d8e565b8080601f016020809104026020016040519081016040528093929190818152602001838380828437600092019190915250929695505050505050565b606084848484604051602001611ef19493929190613394565b6040516020818303038152906040529050949350505050565b505050565b60006108e47f00000000000000000000000000000000000000000000000000000000000000008361330d565b8051606090151580611f84578484604051602001611f7092919091825260c01b6001600160c01b031916602082015260280190565b604051602081830303815290604052611fab565b84843385604051602001611f9b94939291906133e3565b6040516020818303038152906040525b9150935093915050565b6001600160a01b0382166120155760405162461bcd60e51b815260206004820152602160248201527f45524332303a206275726e2066726f6d20746865207a65726f206164647265736044820152607360f81b6064820152608401610a02565b6001600160a01b038216600090815260056020526040902054818110156120895760405162461bcd60e51b815260206004820152602260248201527f45524332303a206275726e20616d6f756e7420657863656564732062616c616e604482015261636560f01b6064820152608401610a02565b6001600160a01b03831660008181526005602090815260408083208686039055600780548790039055518581529192917fddf252ad1be2c89b69c2b068fc378daa952ba7f163c4a11628f55a4df523b3ef910160405180910390a3505050565b600081341461210d576040516304fb820960e51b8152346004820152602401610a02565b5090565b60007f00000000000000000000000000000000000000000000000000000000000000006001600160a01b031663e4fe1d946040518163ffffffff1660e01b8152600401602060405180830381865afa158015612171573d6000803e3d6000fd5b505050506040513d601f19601f820116820180604052508101906121959190613426565b90506001600160a01b0381166121be576040516329b99a9560e11b815260040160405180910390fd5b610ab36001600160a01b038216337f0000000000000000000000000000000000000000000000000000000000000000856122b4565b6001600160a01b0382166122495760405162461bcd60e51b815260206004820152601f60248201527f45524332303a206d696e7420746f20746865207a65726f2061646472657373006044820152606401610a02565b806007600082825461225b9190612bc5565b90915550506001600160a01b0382166000818152600560209081526040808320805486019055518481527fddf252ad1be2c89b69c2b068fc378daa952ba7f163c4a11628f55a4df523b3ef910160405180910390a35050565b604080516001600160a01b038581166024830152848116604483015260648083018590528351808403909101815260849092018352602080830180516001600160e01b03166323b872dd60e01b17905283518085019094528084527f5361666545524332303a206c6f772d6c6576656c2063616c6c206661696c6564908401526116b99287929160009161234c9185169084906123cc565b905080516000148061236d57508080602001905181019061236d9190613047565b611f0a5760405162461bcd60e51b815260206004820152602a60248201527f5361666545524332303a204552433230206f7065726174696f6e20646964206e6044820152691bdd081cdd58d8d9595960b21b6064820152608401610a02565b6060610c63848460008585600080866001600160a01b031685876040516123f39190613443565b60006040518083038185875af1925050503d8060008114612430576040519150601f19603f3d011682016040523d82523d6000602084013e612435565b606091505b5091509150611dc787838387606083156124b05782516000036124a9576001600160a01b0385163b6124a95760405162461bcd60e51b815260206004820152601d60248201527f416464726573733a2063616c6c20746f206e6f6e2d636f6e74726163740000006044820152606401610a02565b5081610c63565b610c6383838151156124c55781518083602001fd5b8060405162461bcd60e51b8152600401610a029190612576565b60405180606001604052806000801916815260200160006001600160401b03168152602001612521604051806040016040528060008152602001600081525090565b905290565b60005b83811015612541578181015183820152602001612529565b50506000910152565b60008151808452612562816020860160208601612526565b601f01601f19169290920160200192915050565b602081526000610a9a602083018461254a565b6001600160a01b038116811461130157600080fd5b600080604083850312156125b157600080fd5b82356125bc81612589565b946020939093013593505050565b600060e082840312156125dc57600080fd5b50919050565b6000602082840312156125f457600080fd5b81356001600160401b0381111561260a57600080fd5b610c63848285016125ca565b8351815260208085015190820152600060a08201604060a0604085015281865180845260c08601915060c08160051b8701019350602080890160005b838110156126915788870360bf1901855281518051885283015183880187905261267e8789018261254a565b9750509382019390820190600101612652565b50508751606088015250505060208501516080850152509050610c63565b6000606082840312156125dc57600080fd5b60008083601f8401126126d357600080fd5b5081356001600160401b038111156126ea57600080fd5b60208301915083602082850101111561270257600080fd5b9250929050565b600080600080600080600060e0888a03121561272457600080fd5b61272e89896126af565b96506060880135955060808801356001600160401b038082111561275157600080fd5b61275d8b838c016126c1565b909750955060a08a0135915061277282612589565b90935060c0890135908082111561278857600080fd5b506127958a828b016126c1565b989b979a50959850939692959293505050565b6000806000606084860312156127bd57600080fd5b83356127c881612589565b925060208401356127d881612589565b929592945050506040919091013590565b803563ffffffff811681146127fd57600080fd5b919050565b6000806040838503121561281557600080fd5b6125bc836127e9565b801515811461130157600080fd5b6000806040838503121561283f57600080fd5b82356001600160401b0381111561285557600080fd5b612861858286016125ca565b92505060208301356128728161281e565b809150509250929050565b8151815260208083015190820152604081016108e4565b803561ffff811681146127fd57600080fd5b600080604083850312156128b957600080fd5b6128c2836127e9565b91506128d060208401612894565b90509250929050565b6000602082840312156128eb57600080fd5b8135610a9a81612589565b60008060008060a0858703121561290c57600080fd5b61291686866126af565b935060608501356001600160401b0381111561293157600080fd5b61293d878288016126c1565b909450925050608085013561295181612589565b939692955090935050565b60008083601f84011261296e57600080fd5b5081356001600160401b0381111561298557600080fd5b6020830191508360208260051b850101111561270257600080fd5b600080602083850312156129b357600080fd5b82356001600160401b038111156129c957600080fd5b6129d58582860161295c565b90969095509350505050565b6000602082840312156129f357600080fd5b610a9a826127e9565b60008060008060608587031215612a1257600080fd5b612a1b856127e9565b9350612a2960208601612894565b925060408501356001600160401b03811115612a4457600080fd5b612a50878288016126c1565b95989497509550505050565b60008060008385036080811215612a7257600080fd5b84356001600160401b03811115612a8857600080fd5b612a94878288016125ca565b9450506040601f1982011215612aa957600080fd5b506020840191506060840135612abe81612589565b809150509250925092565b600060c082019050835182526001600160401b0360208501511660208301526040840151612b04604084018280518252602090810151910152565b5082516080830152602083015160a0830152610a9a565b60008060408385031215612b2e57600080fd5b8235612b3981612589565b9150602083013561287281612589565b600060608284031215612b5b57600080fd5b610a9a83836126af565b600181811c90821680612b7957607f821691505b6020821081036125dc57634e487b7160e01b600052602260045260246000fd5b634e487b7160e01b600052604160045260246000fd5b634e487b7160e01b600052601160045260246000fd5b808201808211156108e4576108e4612baf565b604051606081016001600160401b0381118282101715612bfa57612bfa612b99565b60405290565b604080519081016001600160401b0381118282101715612bfa57612bfa612b99565b604051601f8201601f191681016001600160401b0381118282101715612c4a57612c4a612b99565b604052919050565b60006001600160401b03821115612c6b57612c6b612b99565b50601f01601f191660200190565b60006001600160401b0380841115612c9357612c93612b99565b8360051b6020612ca4818301612c22565b868152918501918181019036841115612cbc57600080fd5b865b84811015612d8257803586811115612cd65760008081fd5b88016060368290031215612cea5760008081fd5b612cf2612bd8565b612cfb826127e9565b8152612d08868301612894565b8682015260408083013589811115612d205760008081fd5b929092019136601f840112612d355760008081fd5b8235612d48612d4382612c52565b612c22565b8181523689838701011115612d5d5760008081fd5b818986018a830137600091810189019190915290820152845250918301918301612cbe565b50979650505050505050565b60008085851115612d9e57600080fd5b83861115612dab57600080fd5b5050820193919092039150565b60008451612dca818460208901612526565b8201838582376000930192835250909392505050565b81835281816020850137506000828201602090810191909152601f909101601f19169091010190565b602081526000610c63602083018486612de0565b634e487b7160e01b600052603260045260246000fd5b6000823561013e19833603018112612e4a57600080fd5b9190910192915050565b6000808335601e19843603018112612e6b57600080fd5b8301803591506001600160401b03821115612e8557600080fd5b60200191503681900382131561270257600080fd5b6001600160401b038116811461130157600080fd5b63ffffffff612ebd896127e9565b1681526020880135602082015260006040890135612eda81612e9a565b6001600160401b03811660408401525087606083015260e06080830152612f0560e083018789612de0565b6001600160a01b03861660a084015282810360c0840152612f27818587612de0565b9a9950505050505050505050565b600060208284031215612f4757600080fd5b81516001600160401b03811115612f5d57600080fd5b8201601f81018413612f6e57600080fd5b8051612f7c612d4382612c52565b818152856020838501011115612f9157600080fd5b611b15826020830160208601612526565b600060408284031215612fb457600080fd5b612fbc612c00565b82358152602083013560208201528091505092915050565b600060208284031215612fe657600080fd5b8135610a9a81612e9a565b60018060a01b038516815283602082015261ffff83166040820152608060608201526000610b36608083018461254a565b604081526000613035604083018561254a565b8281036020840152611b15818561254a565b60006020828403121561305957600080fd5b8151610a9a8161281e565b6040815263ffffffff8351166040820152602083015160608201526000604084015160a0608084015261309a60e084018261254a565b90506060850151603f198483030160a08501526130b7828261254a565b60809690960151151560c08501525050506001600160a01b039190911660209091015290565b6000604082840312156130ef57600080fd5b6130f7612c00565b9050815181526020820151602082015292915050565b60006040828403121561311f57600080fd5b610a9a83836130dd565b601f821115611f0a576000816000526020600020601f850160051c810160208610156131525750805b601f850160051c820191505b818110156131715782815560010161315e565b505050505050565b81516001600160401b0381111561319257613192612b99565b6131a6816131a08454612b65565b84613129565b602080601f8311600181146131db57600084156131c35750858301515b600019600386901b1c1916600185901b178555613171565b600085815260208120601f198616915b8281101561320a578886015182559484019460019091019084016131eb565b50858210156132285787850151600019600388901b60f8161c191681555b5050505050600190811b01905550565b600060208083018184528085518083526040925060408601915060408160051b87010184880160005b838110156132b557888303603f190185528151805163ffffffff1684528781015161ffff168885015286015160608785018190526132a18186018361254a565b968901969450505090860190600101613261565b509098975050505050505050565b6000608082840312156132d557600080fd5b6132dd612bd8565b8251815260208301516132ef81612e9a565b602082015261330184604085016130dd565b60408201529392505050565b60008261332a57634e487b7160e01b600052601260045260246000fd5b500490565b80820281158282048414176108e4576108e4612baf565b803560208310156108e457600019602084900360031b1b1692915050565b6001600160c01b0319813581811691600885101561338c5780818660080360031b1b83161692505b505092915050565b6001600160401b0360c01b8560c01b16815263ffffffff60e01b8460e01b16600882015282600c820152600082516133d381602c850160208701612526565b91909101602c0195945050505050565b8481526001600160401b0360c01b8460c01b16602082015282602882015260008251613416816048850160208701612526565b9190910160480195945050505050565b60006020828403121561343857600080fd5b8151610a9a81612589565b60008251612e4a81846020870161252656fea26469706673582212200583b9a2eff145ff76e08df1eee496008d1a7bfccf70f6e04625e321aa7dcd2a64736f6c63430008160033","linkReferences":{}},"methodIdentifiers":{"SEND()":"1f5e1334","SEND_AND_CALL()":"134d4f25","allowInitializePath((uint32,bytes32,uint64))":"ff7bd03d","allowance(address,address)":"dd62ed3e","approvalRequired()":"9f68b964","approve(address,uint256)":"095ea7b3","balanceOf(address)":"70a08231","combineOptions(uint32,uint16,bytes)":"bc70b354","decimalConversionRate()":"963efcaa","decimals()":"313ce567","decreaseAllowance(address,uint256)":"a457c2d7","endpoint()":"5e280f11","enforcedOptions(uint32,uint16)":"5535d461","increaseAllowance(address,uint256)":"39509351","isComposeMsgSender((uint32,bytes32,uint64),bytes,address)":"82413eac","isPeer(uint32,bytes32)":"5a0dfe4d","lzReceive((uint32,bytes32,uint64),bytes32,bytes,address,bytes)":"13137d65","lzReceiveAndRevert(((uint32,bytes32,uint64),uint32,address,bytes32,uint256,address,bytes,bytes)[])":"bd815db0","lzReceiveSimulate((uint32,bytes32,uint64),bytes32,bytes,address,bytes)":"d045a0dc","msgInspector()":"111ecdad","name()":"06fdde03","nextNonce(uint32,bytes32)":"7d25a05e","oApp()":"52ae2879","oAppVersion()":"17442b70","oftVersion()":"156a0d0f","owner()":"8da5cb5b","peers(uint32)":"bb0b6a53","preCrime()":"b731ea0a","quoteOFT((uint32,bytes32,uint256,uint256,bytes,bytes,bytes))":"0d35b415","quoteSend((uint32,bytes32,uint256,uint256,bytes,bytes,bytes),bool)":"3b6f743b","renounceOwnership()":"715018a6","send((uint32,bytes32,uint256,uint256,bytes,bytes,bytes),(uint256,uint256),address)":"c7c7f5b3","setDelegate(address)":"ca5eb5e1","setEnforcedOptions((uint32,uint16,bytes)[])":"b98bd070","setMsgInspector(address)":"6fc1b31e","setPeer(uint32,bytes32)":"3400288b","setPreCrime(address)":"d4243885","sharedDecimals()":"857749b0","symbol()":"95d89b41","token()":"fc0c546a","totalSupply()":"18160ddd","transfer(address,uint256)":"a9059cbb","transferFrom(address,address,uint256)":"23b872dd","transferOwnership(address)":"f2fde38b"},"id":1}