{"abi":[{"type":"fallback","stateMutability":"nonpayable"},{"type":"function","name":"isSupportedEid","inputs":[{"name":"","type":"uint32","internalType":"uint32"}],"outputs":[{"name":"","type":"bool","internalType":"bool"}],"stateMutability":"pure"},{"type":"function","name":"messageLibType","inputs":[],"outputs":[{"name":"","type":"uint8","internalType":"enum MessageLibType"}],"stateMutability":"pure"},{"type":"function","name":"supportsInterface","inputs":[{"name":"interfaceId","type":"bytes4","internalType":"bytes4"}],"outputs":[{"name":"","type":"bool","internalType":"bool"}],"stateMutability":"view"},{"type":"function","name":"version","inputs":[],"outputs":[{"name":"major","type":"uint64","internalType":"uint64"},{"name":"minor","type":"uint8","internalType":"uint8"},{"name":"endpointVersion","type":"uint8","internalType":"uint8"}],"stateMutability":"pure"},{"type":"error","name":"LZ_NotImplemented","inputs":[]}],"bytecode":{"object":"0x608060405234801561001057600080fd5b506101c3806100206000396000f3fe608060405234801561001057600080fd5b506004361061004c5760003560e01c806301ffc9a7146100655780631881d94d1461008d57806354fd4d501461009c5780636750cd4c146100c3575b604051632657b6c360e01b815260040160405180910390fd5b61007861007336600461010e565b6100d7565b60405190151581526020015b60405180910390f35b6002604051610084919061013f565b6040805167ffffffffffffffff815260ff6020820152600291810191909152606001610084565b6100786100d1366004610167565b50600190565b60006001600160e01b031982166325fc096160e21b148061010857506301ffc9a760e01b6001600160e01b03198316145b92915050565b60006020828403121561012057600080fd5b81356001600160e01b03198116811461013857600080fd5b9392505050565b602081016003831061016157634e487b7160e01b600052602160045260246000fd5b91905290565b60006020828403121561017957600080fd5b813563ffffffff8116811461013857600080fdfea2646970667358221220386aed8a449439d545e3e64bce20e4b7d3ff18e5bce28efa65faf3b6440ed37d64736f6c63430008160033","linkReferences":{}},"methodIdentifiers":{"isSupportedEid(uint32)":"6750cd4c","messageLibType()":"1881d94d","supportsInterface(bytes4)":"01ffc9a7","version()":"54fd4d50"},"id":45}